:10000000001B0020392B0000BD6C00000D2B0000F0
:100010000D2B00000D2B00000D2B00000000000038
:10002000000000000000000000000000C9230000E4
:100030000D2B000000000000392300000D2B0000F4
:100040003925000039250000392500003925000038
:100050003925000039250000392500003925000028
:100060003925000039250000392500003925000018
:100070003925000039250000392500003925000008
:1000800039250000392500003925000039250000F8
:1000900039250000392500003925000039250000E8
:1000A00039250000392500003925000039250000D8
:1000B00039250000392500003925000039250000C8
:1000C00039250000392500003925000039250000B8
:1000D00039250000392500003925000039250000A8
:1000E0003925000039250000392500003925000098
:1000F0003925000039250000392500003925000088
:1001000053B94AB9002908BF00281CBF4FF0FF317E
:100110004FF0FF3000F00CB8ADF1080C6DE904CEE3
:1001200000F008F8DDF804E0DDE9022304B07047D0
:10013000704700BF2DE9F04786468C460846089E6A
:10014000154674461946002B40F0C2808542B2FA2B
:1001500082F245D94AB1C2F1200300FA02FC2EFA1C
:1001600003F3954043EA0C0C94404FEA154EA8B2B5
:10017000BCFBFEF8230C0EFB18CC08FB00F943EA8D
:100180000C43994528D9EB1808F1FF3704D299455B
:1001900002D9A8F102072B44A3EB0903A4B2B3FBD5
:1001A000FEFC0EFB1C330CFB00F044EA0344A042AF
:1001B00014D92C190CF1FF3304D2A04202D9ACF1AE
:1001C00002032C44241A43EA07401EB1D440002302
:1001D00034607360BDE8F0874746DDE76346F1E7CA
:1001E00092BB431B01214FEA154EAFB2B3FBFEFC9D
:1001F000200C0EFB1C330CFB07F840EA0343984528
:1002000062D9EB180CF1FF3004D2984502D9ACF159
:1002100002002B44A3EB0803A4B2B3FBFEFC0EFBCD
:100220001C330CFB07F744EA0344A7424ED92C19B0
:100230000CF1FF3304D2A74202D9ACF102032C44E3
:10024000E41B43EA0040C0E7C2F1200320FA03F1B7
:10025000954090402EFA03F303434FEA154EAFB298
:10026000B1FBFEFC0EFB1C10190C0CFB07F841EA5D
:100270000041884504FA02F422D969180CF1FF30D4
:1002800004D2884502D9ACF102002944A1EB08014F
:100290009BB2B1FBFEFC0EFB1C110CFB07F743EA03
:1002A00001439F420ED9EB180CF1FF3104D29F425B
:1002B00002D9ACF102012B44DB1B41EA004192E779
:1002C0006046E3E76146F7E76046A3E76346B7E7C2
:1002D000834206D916B9002108467BE7C6E900E04B
:1002E000F9E7B3FA83F78FB9834201D3724508D88F
:1002F000BEEB020460EB030301209C461EB9002103
:1003000068E73846FAE7C6E9004CF8E7C7F1200C81
:10031000BB4022FA0CF41C432EFA0CF120FA0CF329
:10032000B84001434FEA14490EFA07F5B3FBF9F858
:100330001FFA84FE09FB18300B0C08FB0EFA43EA87
:1003400000439A4502FA07F240D9E31808F1FF305A
:1003500004D29A4502D9A8F102002344A3EB0A0370
:1003600089B2B3FBF9F809FB183308FB0EFE41EA2A
:1003700003418E452CD9611808F1FF3304D28E4514
:1003800002D9A8F10203214443EA0040A0FB0298ED
:10039000A1EB0E014145CE46434602D306D14D4561
:1003A00004D2B9EB020E68EB04030138002EA6D08C
:1003B000B5EB0E0261EB030101FA0CFC22FA07F324
:1003C0004CEA0303F940C6E9003198E74046C5E727
:1003D0004346D9E7000000002DE9F04F9FB0824668
:1003E000039116461C460025307810B9284600F0C7
:1003F00085BD731C2528069306D00399D047002895
:10040000C0F27C85013527E21822002110A806F0F1
:10041000A1FC7378252B7DD00023701C98469E4646
:100420009C461F46014610F8012B2B2A00F0A180A4
:1004300000F29880202A00F09F80232A00F09F80FD
:100440002BB19DF8483043F040038DF84830B8F1A7
:10045000000F05D09DF8483043F020038DF8483058
:10046000BEF1000F05D09DF8483043F010038DF821
:100470004830BCF1000F05D09DF8483043F0080328
:100480008DF848302FB19DF8483043F004038DF8C3
:1004900048309DF8483003F04400442803D16FF3FE
:1004A00086138DF848309DF848302A2A43F080039F
:1004B0008DF848307FD19DF8492042F001024B1C55
:1004C0008DF849201A782E2A9DF849200CBF012169
:1004D000002161F341028DF8492078D15A782A2A07
:1004E0006ED0013300224FF00A0C194611F8010BAF
:1004F000A0F13007092F40F2AD809DF8481014920A
:10050000C1F3400040EAD2700A4660F341028DF820
:1005100048205CE0B21C06928DF84B309DF84930C3
:10052000D90740F1508154F8042B0492002A08DACC
:100530009DF8482042F004028DF84820049A524267
:1005400004925A0740F1478154F8047B002F80F24F
:1005500046819DF849306FF341038DF849304FF0E3
:10056000FF373CE12D2A0DD0302A7FF469AF0123FB
:1005700058E74FF0010C55E74FF0010E52E74FF0EE
:1005800001084FE701274DE70EFB0272303A0346A0
:10059000184610F8017BA7F1300CBCF1090FF3D914
:1005A00099428FD09DF848101392D20F62F3410107
:1005B0008DF8481086E70B4600224FF00A0EE7E759
:1005C0009DF8492042F004028DF8492002331A7840
:1005D0006C2A5FD043D8682A49D06A2A63D04C2A53
:1005E00069D013F8012B0693782A8DF84B2000F27E
:1005F000A9806D2A6CD8692A00F2A480572A00F2DB
:100600008480412A04D0A2F14503022B00F29A8093
:100610009DF84A3002F0DF020421A2F1410761F3A4
:1006200002037A429DF849108DF84A307A4162F30C
:10063000C7110A068DF84910CBB200F1C28003F051
:100640007802182A40F0AC806FF3C6038DF8493069
:1006500000239BE00CFB0202303A0B4645E7742A6C
:1006600025D07A2ABDD19DF8492006210CE05A7880
:10067000682A9DF8492006D1012161F3C6028DF850
:1006800049200233ADE7022161F3C6028DF849200B
:100690000133A6E75A786C2A9DF8492001D104213C
:1006A000EBE70321F0E79DF849200521ECE79DF8F1
:1006B00049200721E8E7BDF8482022F4F04222F063
:1006C000020242F4804242F00202ADF84820DFE725
:1006D0006E3AD3B201229A4040F282431A429DF808
:1006E000493036D112F0240F5ED1D1072AD59DF8BA
:1006F0004A2003F07803A3F14000032161F30202D2
:1007000043428DF84A20434140E0A2F15801C9B26A
:10071000012000FA01F111F4624F7FF479AF40F645
:10072000010319429DF8493019D111F4043F09D051
:100730009DF84A2060F3020203F07803402B8DF805
:100740004A2085D19DF8483043F001038DF84830A8
:100750007EE79DF84A20022161F30202ECE79DF852
:100760004A10022003F0780360F30201402B8DF859
:100770004A1002BF9DF8481041F001018DF8481061
:10078000632A7FF465AF003B18BF01239DF8482022
:10079000C2F340010B4363F341028DF84820BDE6EC
:1007A00013F0380FCED153E79DF84A20032113F000
:1007B000780F61F302028DF84A2014BF0123002351
:1007C000E4E70123E2E79DF94820002AB4BF139A29
:1007D0004FF0FF32B4E69F077FF5C1AE149F0023B0
:1007E000CDE913339DF84A3003F00702042A9DF83F
:1007F000492007D1900705D49DF949100029ACBFC5
:1008000006270D2703F00703012BC2F3C30233D1E0
:10081000D31E042B04D8DFE803F021464621210033
:100820002368012A4FEAE371CDE910311CD19DF90B
:100830004030D917CDE9103104349DF84830079382
:10084000990750D0069B03993246504606F086F928
:100850000028C0F253830544069EC5E554F8043BC6
:10086000D917CDE91031E8E7022AE5D119B243F3EF
:10087000C033CDE91013DFE7022B24D1D31E042BA4
:1008800004D8DFE803F0181010181800012A54F8F3
:10089000043B4FF0000114D0022ACDE91031CCD135
:1008A0009BB21093C9E7073424F00704F4E802016F
:1008B000CDE91001C1E754F8043B109300231193D4
:1008C000BBE7DBB2CDE7042B08D1073424F00704E3
:1008D000D4E900010834CDE91001AEE7032BACD117
:1008E00054F8043BDDE79DF84BB0BBF1780FB3D86B
:1008F000BBF1570F49D8BBF1250F00F09180BBF138
:10090000240FA9D9BBF1410F03D0ABF14502022A54
:10091000A2D8DDE91012002AC0F23681079B1E071B
:1009200000F13581C3F300194FEA4919C2F30A50A7
:10093000C2F31302002840F02D8151EA020614BFD1
:1009400001260026D20242EA5152C902BBF1460FEB
:1009500040EA010E42EAE07C08BF4FF0660B5EEA17
:100960000C0CCDE90C1200F09781002E40F0448170
:100970000D9A42F00042A0F2FE380D920020DDE90F
:100980000C1206464FF0050C50E1ABF1580120293E
:100990003FF662AF01A050F821F000BF270B000026
:1009A00059080000590800005908000059080000C3
:1009B00059080000590800005908000059080000B3
:1009C0001309000059080000AB0A0000BF0A00002C
:1009D0001309000013090000130900005908000062
:1009E000BF0A00005908000059080000590800001B
:1009F00059080000610B0000270B00002D0B0000C0
:100A00005908000059080000270A00005908000092
:100A1000270B00005908000059080000270B0000B0
:100A200003995846EAE4002F109E3ADB39463046D7
:100A300006F07CF93718002E3FF40EAF4FF0000996
:100A40009DF84A3013F01002059200F04C820230FB
:100A500013F04003DDF84C80089318BF149BCDF8C9
:100A60001C80404418BFC018049B002B40F35682E2
:100A70009DF848201B1A04935307C2F3800B00F122
:100A80004D82500640F13D82B9F1000F07D0039925
:100A90004846D0470028C0F231820135D94630227D
:100AA00030E2304606F03BF9C4E7109B8DF85C302D
:100AB0004FF000090DF15D0717AE0120C0E7079B5D
:100AC0001A0758BFC3F30019DDE9102354BF4FEADA
:100AD00049194FF02B09002B06DA524263EB43030E
:100AE000CDE910234FF02D090DF175030093DDE9D9
:100AF000100117AB12AA05F0EBFF0646002F0CDB26
:100B00009DF848200DF175039B1B6FF386129F42E1
:100B10008DF8482001D9FB1A1393002E3FF49CAEA8
:100B20000DF1750756E04FF00009DDE71098002839
:100B300000F0D4810DF17503009312AA17AB0021C8
:100B400005F0C6FFBDF84A3003F0EF0343F4F0436D
:100B500043F010030646ADF84A304FF00009CDE7E8
:100B6000109B072A3FF678AEDFE802F00C04060C73
:100B700008080C0C1D706FE61D806DE6EA17C3E9CE
:100B8000005269E61D6067E64FF02D09CEE64FF092
:100B90002B09CBE640F2FF76B0422AD10A43ABF1F3
:100BA00041031ED11A2B35BF492369234E216E21E3
:100BB00034BF462266228DF85C309DF848308DF8AF
:100BC0005D106FF386138DF85E208DF848300DF1BF
:100BD0005F0717AEB81BB9F1000F3FF431AF01301A
:100BE0002EE7192B8BBF6E234E23612141211A461C
:100BF000E1E70026A6E6013849185241002AFADA50
:100C0000CDE90C12B4E6490841EAC2715208B2F1CA
:100C1000333F404608F10108F5D20CFB02FEA1FB70
:100C20000C1200F102087244013E012018F1020F7B
:100C3000E9DB08B1CDE90C12B8F1000FDDE90C21B8
:100C40002DDCC8F10400A0F1200C08F11C08C24002
:100C500001FA08F821FA0CFCC1400BF0DF0042EA6F
:100C60000802472842EA0C023AD1F01C01DBB742E5
:100C70002BDAABF10203002F5FFA83FB7DDD9DF8D9
:100C80004800830607F1FF3777D43B1E18BF0123C6
:100C9000059307F101082DE04FF000086EE60232DF
:100CA00041F100010CA8CDE90C2105F0E2FEDDE9DF
:100CB0000C2108F1FF38013692184941002908F14A
:100CC000FF38F9DACDE90C21B6E79DF848309806EF
:100CD000A7EB06074FD43B1E18BF0123059304E082
:100CE0000023BBF1660F0593D3D117EB06084FF035
:100CF000660B44D4B8F1100FA8BF4FF010089FED59
:100D0000B27B8DED0E7B10200B90DDE90E03B8F168
:100D1000000F37D1121841EB0301B1F1805F41D2CE
:100D2000CDE90C21079BBBF1660F03F0200240F0D8
:100D3000B480002E41DC30218DF85C10002A65D192
:100D4000002F40F3B2812E228DF85D2086B17242D1
:100D5000BA42A8BF3A469DF84A101392002AA7EB60
:100D60000207D4BF0022012262F345118DF84A1018
:100D70000DF15E0839E00023B0E7002388E74FF06B
:100D80000008BCE7400840EAC3705B08CDE90E03E9
:100D90000EA8CDE9082108F1FF3805F06AFEDDE96B
:100DA0000821B2E7520842EAC1720CA84908CDE90D
:100DB0000C21013605F05DFEB4E70DF15C080B99DE
:100DC000002909DD0BA90CA8079205F06AFE013E77
:100DD00008F8010B079AF2D113969AB9002F40F345
:100DE00062812E2108F8011B0026002F17DD0B9AC7
:100DF000002A14DD0BA90CA805F053FE013F08F8EA
:100E0000010BF2E72E2208F8012BEDE72E228DF8D8
:100E10005D20002EACD0002F99DC0DF15E08059B03
:100E2000002B4ED1149747460BF0DF02452A23D101
:100E3000002EBABF76422D232B23632EC8BF642118
:100E40007B70D1BFBA1CB6FBF1F3FA1C03F1300082
:100E5000C8BF01FB13664FF00A01C8BFB87087F81E
:100E600000B0B6FBF1F3174603F1300001FB13634A
:100E7000303307F8020B5370139B002B2CDC149BB0
:100E8000002BD4BF002301239DF84A2063F3861270
:100E900000238DF84A203B709BE60BA90CA8079213
:100EA00005F0FFFD079A8DF85C00302818BF06F1A9
:100EB000FF3612B9002F40F3F8802E228DF85D2006
:100EC00056E7474608F1FF3817F8012C302AF8D0CA
:100ED0002E2A08BF4746A7E70123D5E73C4F8146A6
:100EE0007E1F0520ACE51A0748BF0130B0E510466B
:100EF00009920399D0470028099A05DA1FB0BDE886
:100F0000F08F2022DDF810B0594600290BF1FF3B8D
:100F1000EDDC049BCDF810B02B445D1AB9F1000F45
:100F200005D003994846D0470028E7DB0135089BE8
:100F3000002B7DD09DF94930002B28DBB3469BF870
:100F40000000A0F13003092BD9460BF1010B46D963
:100F50009DF84A30AE1B99064E4407D44246002AFB
:100F600008F1FF3840DC079B33449E1A99F80000D3
:100F70002E280AD10399D0470028BFDBB8F1000F13
:100F800006F1010636DC09F101094D463DE0B146A6
:100F900099F800007028C84609F101091AD1AE1B62
:100FA000149D46443544AB1B002B39DC03993B466A
:100FB0004246504605F0D2FD00289FDB3044049E97
:100FC000054606446AE000BF00000000000000087B
:100FD000DC7F00000399D0470028D9DA8EE7039917
:100FE000D0470028ABDA89E703993020D0470028A2
:100FF000B4DA83E703993020D04708F1FF38BBE724
:101000000399D0470028FFF679AF2878A0F1300384
:10101000092BA84605F10105F2D9A6EB0906BFE7A1
:1010200003993020D0470028FFF668AF0136BAE7B1
:101030009DF84A30DA0601D41B0706D50399302003
:10104000D0470028FFF65AAF0135059B3BB1039905
:101050009DF84B00D0470028FFF650AF0135A8445B
:1010600006E003993020D0470028FFF647AF01354E
:10107000A8EB0503002BF4DC03993B4632465046AF
:1010800005F06CFD0028FFF639AF284497E7039977
:101090002020D0470028FFF631AF0135731B002B0D
:1010A000F5DCFFF7D9BB1646B9E60DF15D08B6E6EB
:1010B0007FB559B1074B02930023CDE90312CDE967
:1010C000003305490222184605F03CFB07B05DF8E5
:1010D00004FB00BF387F0000F87C000070B588B0CA
:1010E0000024234B0293CDE90044234621490322E7
:1010F000204605F027FB02264FF48073CDE9043625
:1011000044F26923CDE906341B4D284606F03BFB2B
:10111000034648B9194A17490090CDE90102324601
:1011200005F010FB08B070BDAB6828465B689847B7
:1011300088B9134E134C4FF0FF32CDE900464FF003
:10114000FF3304A9284602F0F5FB00214FF40040CC
:1011500005F0ECF8EFE70C4B0390CDE901430549AE
:10116000009423463246204605F0ECFADAE700BF49
:101170005D7F0000F87C0000BC7A0000777F0000F3
:10118000B37F0000B11000008C7F00002DE9F04F0C
:1011900091B08407009302F004030293C2F3C203E8
:1011A00003F10103DDF86880039205460E460593BE
:1011B00040F0BE81041D30B1072909D86FF01B0033
:1011C00011B0BDE8F08F01F00706341DC6F1080626
:1011D000009B4FF00009591E4FF0040A4FF0FF33F7
:1011E0000193CDF810904F46CB4653460DB1009871
:1011F00020600598002800F3EB809A48009A82420C
:1012000003D399488242C0F0E380039AA4EB050E11
:1012100092074FEA9E0000F106810F2F00F2B48082
:10122000002D00F0088107F140020DEB020C019A3D
:101230000CF8200C0CF8102C049801300490EAE013
:101240007A2860D84B280ED847285CD829282FD870
:10125000252855D057D820287DD02338D0F1000B31
:101260004BEB000B77E0A0F14C0CBCF12E0F4AD8F1
:10127000DFE80CF071494949494949494949494917
:101280004C49494949494949495A494C4C5A5A5A81
:10129000714C6E497149184C18494983804C494931
:1012A0004C49800000204FF0000B4FF0040A39E059
:1012B000A0F12A0C5FFA8CFC012202FA0CFC1CEA59
:1012C0000E0F48D11CF062502ED11CEA020B42D006
:1012D000013C5444CAF1000C04EA0C04002D61D016
:1012E000A3EB050CA444B4453FF668AF002868D1D1
:1012F000042B47D158F8043B2360043404232AE02C
:10130000019A013A01924FF0000B24E011F8010C10
:101310006C2834D111F8023C00206C2B8346C4D1D8
:101320004FF0080A5346D3E708F1070828F00708EA
:101330000734F8E802AB24F0070435B106982044DE
:10134000B0423FF63BAFC4E900AB08344FF0000BAE
:101350004FF0080A534611F8010F002878D0BBF16E
:10136000000F7FF46DAF2528F5D1019B0133019368
:101370004FF0010B4FF0040AECE7584693E70020CA
:101380008346A5E7082B02D06FF0150018E708F197
:10139000070828F00708B8EC027B84ED007B0834CE
:1013A0000823D8E768B9042B02D108F10408A4E7A0
:1013B000082BE9D108F1070828F0070808F1080808
:1013C000EDE705980138059058F8040B00900DE7FB
:1013D000039A900720D5A4EB050E4FEA9E004FF02C
:1013E000010CBEF5007FCFD20F2FCDD8F5B107F19C
:1013F00040020DEB020EC0B2019A0EF8200C0EF85E
:10140000102CBCF1000F3FF417AF60F07F000EF816
:10141000200C09F101090137C5F1080204340692D4
:101420004FF6DA7E97E74FF0000CDAE7BCF1000FD9
:1014300001D00136EFE7029A0236002AEBD100987C
:10144000CDE9063105F06BFCDDE906310644E2E743
:10145000631BB3F5806F97D245B9A6F10804E01875
:10146000AEE600BF047A0000F48A0000029A286009
:101470009B082B709DF81030C2B1EB7085F802907C
:10148000B9F1000F05D008A80022C5F1010C974260
:101490000ED1C5F101030DF120084FF0000A0193B0
:1014A0000DF1300B574512D1601B89E66B70E5E7F3
:1014B00010F8013B190608D504EB0C0EB64503F0F5
:1014C0007F033FF67BAE04F8013B0132DFE7B9F161
:1014D000000F03D098F90020002A17DB029BD3B13C
:1014E0001AF80B2004F8012B0022019B98182044C5
:1014F000B0423FF663AE98F8000004F8010B009983
:101500000392204605F01BFC039A14440AF1010AD9
:1015100008F10108C6E798F8002055F8223000933A
:10152000029B45F82230009805F0F9FB421CDCE7ED
:101530006FF00D0044E600BF014B1860704700BF1C
:10154000780100202DE9F047058B044628079046D6
:1015500011D4022905F0070540F0CD80204605F0A2
:10156000AEF978B10138218B042811D8DFE800F0FA
:10157000C3106D85950001290CBF45F0100545F09D
:101580002005258388F31188BFF36F8FBDE8F087AE
:1015900001F0070AAA4500F0A6800027B9463E469A
:1015A000A368002B00F0BD8041F00801218388F37F
:1015B0001188BFF36F8FA168002900F0BB800D6810
:1015C000002900F0B780D1F8048033465246204607
:1015D000C047002D76D02B6829461D46F0E701F064
:1015E00007035A1F012A1BD8002221F00701062BEE
:1015F000276889B2C4E9002209D13B4603E0628B27
:10160000013262831B68002BF9D141F00201218372
:10161000204605F054F900287BD041F0200177E006
:10162000042B0AD121F0070189B22183204605F05D
:1016300046F910B141F020012183218B01F0070A06
:10164000AA4550D00027B946AAE7236921F007012F
:1016500041F00601062DD3F8009021832DD1B9F178
:10166000000F40D041F00801218388F31188BFF3B7
:101670006F8F3A492046C84729E021F007012369C6
:1016800041F0040189B2042DD3F804902183E6D0FF
:1016900000273E464FF0040A82E721F00701236944
:1016A00041F0050189B2052DD3F808902183D6D0E9
:1016B00000273E464FF0050A72E700273E464FF0EE
:1016C000060A6DE72B4687E7B9F1000FD1D14FF03D
:1016D0002003EFF3118883F31288BFF36F8F238BFE
:1016E00023F008032383258BEA062ED525F010036B
:1016F000238305F007056669218B002EBFF66FAFC7
:1017000000232768C4E9003321F0070141F00101FB
:101710002183218B01F0070AAA454FF000097FF4CD
:101720003FAF002F9BD041F00801218388F311883F
:10173000BFF36F8F002FC7D03D68394633465246FE
:10174000204605F0E8F82F46F4E7AB067FF51AAF20
:1017500025F02003238305F00705FFE64369000019
:1017600003F002B92DE9F84F81462F480F4605F0E6
:1017700011FA064670B92D4CDFF8B4A00546A04614
:101780004FF0010B544507D3B9F1000F02D04FF0D1
:10179000010AE5B9BDE8F88F237B73B12368DB68E4
:1017A0000BB12046984723681B6943B9636804223C
:1017B0001968204600F0C4F801361034E2E72046EC
:1017C00098470028F2D00BFA06F31D43F4E7A94628
:1017D00095FAA5F4B4FA84F40AFA04F3260108EBA6
:1017E00004146FEA030B25EA0305237B63B158F861
:1017F00006301B6993B94644042273682046196871
:1018000009EA0B0900F09CF8002DE1D127B14FF453
:10181000A470002104F08AFD4D46BAE7204698479F
:101820000028F1D1E7E700BF48040020007D000058
:10183000107D0000014B53F820007047187D000018
:1018400008B5034608462BB1044A136000F07EFA3F
:10185000002008BD6FF01500FBE700BF7C010020F1
:10186000044A054800231370044A4FF400411360F2
:10187000FFF7E6BF40060020916B00004004002007
:1018800070B50B4D297841B90120FFF76BFF094C6A
:10189000094EB44202D301232B7070BD63685B799B
:1018A0001BB1236820469B6898471034F1E700BFBE
:1018B00040060020007D0000107D000010B50446A9
:1018C000084805F067F95CB1BFF35B8F064B53E83E
:1018D000001F013943E80012002AF8D1BFF35B8FE3
:1018E00010BD00BF400400204404002070B50A4B26
:1018F0000A4C1B680A4E05469847A860B44200D3BC
:1019000070BD63685B7923B1236829461B68204654
:1019100098471034F2E700BF7C010020007D0000F2
:10192000107D0000044A054B9B1AB1EBD30F34BF66
:1019300052F8310000207047807C0000007D0000DC
:10194000084BC31A10B41B11446801332371436858
:101950009A7143681960436801225A715DF8044B1B
:1019600005F03AB9007D00002DE9F04F85B002AFD7
:10197000D7E90EA93D6B04460E4693469846BAF148
:10198000000F35D0C7F80490CDF8009010217A6B85
:1019900053460020FFF7FAFB0146164A04F00704FD
:1019A0000BF0070BE40002EA412244EA8B141443D3
:1019B000114A02EAC54217350D4425F00705ADEB83
:1019C000050D144302ADBAF1000F07D0CDF8009019
:1019D0007A6B534605F11000FFF7D8FB43462246C9
:1019E0003146284605F0FBF80C37BD46BDE8F08FC0
:1019F0005146D2E700FE07000000F87F0EB403B5A1
:101A000003AB014653F8042B0448019305F02AF96F
:101A100002B05DF804EB03B0704700BF136C000028
:101A2000CA0605D48B064CBF02490349FFF7E6BF3F
:101A3000704700BFEB7F0000EA7F00002DE9F04F08
:101A40008BB09B469DF850300593DDE915930693C6
:101A5000059B0892DDE9177604460D46002B00F041
:101A6000878006F00103099306F00803079305F049
:101A7000B4F806F0020A0246002849D084492046FC
:101A8000FFF7BCFF8046BAF1000F08D016F0440FF4
:101A900040D180492A462046FFF7B0FF8044099B89
:101AA0005BB17D4B059A7D4953F822207C4B204643
:101AB000002A08BF1A46FFF7A1FF079B002B55D04D
:101AC000784B059A784953F822202046FFF796FF75
:101AD0000546089B2BB175491A462046FFF78EFF35
:101AE0000544BBF1000F05D071495A462046FFF767
:101AF00085FF05444544B9F1000F48D1002F4ED170
:101B0000F30700F1BF8031462046FFF789FFB3E0BD
:101B10008046B8E7674B18680028BFD0664B4FF483
:101B20007A7E1B68B5FBF3F54FF46162B5FBF0F309
:101B300000FB1355B3FBF2FA0EFB05F502FB1A325C
:101B40003C21B5FBF0FCB2FBF1F300FB1C5501FBA3
:101B500013220EFB05F50092B5FBF0F55749CDE9D0
:101B600001C552462046FFF749FF97E7079DB0E7BA
:101B7000BBF1010F06D1B9F1000F64D1002F7BD06A
:101B800000250CE0B9F1000FF8D04D485CE04D485D
:101B90004D494B46224604F0E4FD002F68D0DFF8A3
:101BA0003891DFF838A1102F31462046B84628BFBB
:101BB0004FF01008FFF734FF4FF0000B5D4545DC98
:101BC000069B51461A782046FFF718FF4FF0010B8D
:101BD0001BF0070F03D149462046FFF70FFFD845FA
:101BE0003BD9069B514613F80B202046FFF706FF12
:101BF0000BF1010BBBF1100FEAD1344920464FF035
:101C0000000BFFF7FBFE5A46069B9A5CA2F12001EF
:101C10005F2928BF2E222E492046FFF7EFFE0BF149
:101C2000010BBBF1100F1DD01BF0070F03D149466C
:101C30002046FFF7E3FED8455A46E5D849462046F8
:101C4000FFF7DCFEEBE71F48059DA1E7494620466C
:101C5000FFF7D4FE0BF1010BB0E71E492046FFF75A
:101C6000CDFEC5E7069BB7EB0807434406939AD120
:101C7000059B002B7FF444AF20460BB0BDE8F04F2E
:101C800004F0F7BF064A05492046FFF7B7FE3AE7DA
:101C9000F27F0000F67F0000287D0000B78500007D
:101CA000ED7F00003C7D00001B80000021800000D3
:101CB00025800000500400204C040020FF7F00001D
:101CC0002F6C0000136C0000656C00003480000075
:101CD0003680000030800000328000002A80000042
:101CE0002DE9F0410F884B688E6886B005460C469A
:101CF0009046C7F382175BB1134A9B1A43F3CF0197
:101D000000291FDB2078C0F3C200FFF70BFE03465B
:101D10002146608851F8102B0097C2F34922002A0F
:101D200001EB0204C0F3CB0008BF0021CDE903089A
:101D3000CDE90114002231462846FFF77FFE06B0A8
:101D4000BDE8F0810023E3E7807C0000074A002122
:101D50000123904206D8064A01B901231360054BBE
:101D60001860704740085B000121F2E740420F0015
:101D70004C04002050040020014B01221A707047CF
:101D800041060020014B00201960704768040020C4
:101D9000024B034801221A7004F06BBF4206002078
:101DA0006C7D000010B5064B18680C46FFF742FD2D
:101DB00021460346BDE8104002480F22184700BFE5
:101DC000680400206C7D0000F8B5194D07460E46EA
:101DD000042432463946002003F02AFCC8B101230E
:101DE0002B70144B1B782BB93046F8BD5CB92C70A6
:101DF0004FF0FF34002003F08FFC0028F4D02B7844
:101E0000002BF3D1F0E7013C41F2883005F0E8FD0A
:101E1000F0E72B7813B1013C04D12C702B78002B08
:101E2000D7D1E1E741F2883005F0DAFDF6E700BFEF
:101E300041060020420600202DE9F84305464FF0F8
:101E40002003EFF3118683F31288BFF36F8F0E4BDD
:101E50000E4F1C68DFF838804FF00C092CB986F360
:101E60001188BFF36F8FBDE8F883D4E90123002DFB
:101E700018BF13462BB198F8142009FB02F2B85C86
:101E800098472468EAE700BF840400207804002013
:101E90000006002070B5194B1C7DBFF35B8F04F06A
:101EA0001F0301229A40164B610903EB8103D043C3
:101EB00053E8001F01EA000543E80056002EF7D161
:101EC000BFF35B8F0A4213D00E4B0F4D8BB10C2327
:101ED0006343EA18E85C517804F054FF0020FFF7F0
:101EE000ABFF0C235C432A1900232B51C2E90133B9
:101EF00070BD83F31188BFF36F8FEFE700060020FA
:101F00008C040020856D0000780400202DE9F0414C
:101F1000354B07461D7D4FF02003EFF3118883F307
:101F20001288BFF36F8F0C24304B314E6C431A195B
:101F3000195D00294CD007CA06EB040C8CE8070099
:101F400000221A5588F31188BFF36F8F0C236B435F
:101F5000F218F05C002839D07B1C10D0D2F808C0F1
:101F6000244C254A4FF400400021ECFB00410023A3
:101F70002046FEF7C5F80121381A05F011FD04F0DE
:101F800017F90120FFF758FFBFF35B8F1B4B6A095E
:101F900003EB820305F01F0101228A4053E8000F82
:101FA000104343E800010029F8D1BFF35B8F144BC5
:101FB0003BB10C2303FB05F03318305C597804F077
:101FC000D5FEFFF767FF04F007F90120BDE8F081B7
:101FD0000146284600F016F80028B3D007C834445C
:101FE00084E80700AEE700BF000600206C04002074
:101FF000780400203F420F0040420F008C04002074
:102000006D6D00002DE9F04F85B00E4603A900F07C
:1020100043F81E4B039DD3F800A0DFF87880431EE1
:102020001BB203EB4303044605EB83054FF4004763
:102030004FF0000B24B9A146484605B0BDE8F08F2B
:102040006868134AC4465946E0FB07C1002360464E
:10205000FEF756F80190A8680D4AC4465946E0FBC1
:1020600007C100236046FEF74BF8BAF1FF3FA946CF
:1020700001D0824505D9731CDED0019B1844B042C3
:10208000DAD9013CA4B20C3DD4E700BF80010020A6
:1020900040420F003F420F0008B9024B0B60002086
:1020A000704700BF7C7D0000014910220A60704724
:1020B00010ED00E072B6404080F31188BFF36F8FDF
:1020C000BFF34F8F30BF62B6BFF36F8F704700BF53
:1020D00072B6494081F31188BFF34F8F20BF80F360
:1020E000118862B6704700BF2DE9F04780468CB07A
:1020F0000D46002977D08B6805934B6804930B68D5
:10210000039300243B4B3C49029301222346204683
:10211000CDE9004404F0BAFD6B6905932B69049383
:10212000EB680393354B34490094CDE90143012218
:102130002346204604F0AAFDEB690393304B2E4959
:102140000094CDE9014301222346204604F09EFD80
:10215000DFF8B890DFF8A0A02F462646D7ED0B7A1F
:10216000FCEEE77AE31C0993CDED0A7AD7ED0A7A03
:10217000FCEEE77AA31C0793CDED087AD7ED097A38
:10218000FCEEE77A631C0593CDED067AD7ED087A6D
:10219000FCEEE77A0023CDE90294CDE90066CDEDAF
:1021A000047A012251461846043404F06FFD102CC5
:1021B00007F11007D2D12B6E0393124B0E490096F4
:1021C000CDE9016300231846012204F05FFDAB69ED
:1021D00003930D4B08490096CDE9016300230122CA
:1021E000184604F053FD294640460CB0BDE8F047C0
:1021F00003F0ACBA6C800000D87C00009B8000002B
:10220000CA8000001C8100002B810000D9800000E2
:1022100040B2002807DB044A4109012300F01F00F7
:10222000834042F82130704700E100E040B20028CE
:102230000CDB4309064900F01F00203301228240D5
:1022400041F82320BFF34F8FBFF36F8F704700BF5C
:1022500000E100E0054B420900F01F0053F8222086
:10226000012303FA00F01040704700BF00E100E0D6
:1022700040B20028A8BF00F1604001F10101B8BFE1
:10228000064B4FEA4111ACBF00F5614000F00F0072
:10229000C9B2B4BF195480F80013704714ED00E0C0
:1022A00030BFFFF7FDBF00BF144A08B5144B22F042
:1022B0007F029A60BFF34F8FBFF36F8FD3F88820F0
:1022C00022F47002C3F88820D3F8882042F4A002D8
:1022D000C3F888204FF04042C3F83422BFF34F8F39
:1022E000BFF36F8F0023E1EE103A03F0CFFA04F052
:1022F000B7F800F015FC03F00DFB00BF0000000074
:1023000000ED00E0094A0A4993680968996709499C
:1023100058674B6843F080534B60002383F3118868
:10232000BFF36F8F9368986F704700BF000600205F
:10233000087F000000ED00E021498A6882F8BDE0D6
:102340004FF030001044EFF3098C80E8F01F1EF0CE
:10235000100F03D102F17C0080EC108A202080F362
:102360001288BFF36F8F174F4FF000660A6A8A60BA
:102370003E6092F9BDE0506F0023536780F31188EF
:102380001EF0100F03D00023E1EE103A03E002F13B
:102390007C0090EC108AEFF3148323F0040383F3A2
:1023A0001488BFF36F8F04B5104600F055FCBDE8EC
:1023B000044002F1300090E8F01F8CF30988704768
:1023C0000006002004ED00E01EF0040F0CBFEFF348
:1023D0000880EFF30980816911F8021C0229FFD0FF
:1023E00001B504F063FC01BD017B890705D5416E91
:1023F00040314166816E4039816642F8203C009B45
:1024000042F81C3C0F49019B42F8183C029B42F8E1
:10241000143C21F001014FF0807342F8043C42F873
:10242000081C00234367037B13F0020FA2F1200274
:102430004FF6085308BF4FF47D430265C0F8BC3027
:10244000704700BFE3670000037B13F0020F194BD6
:1024500003D190F8BD20D20617D45A6B42F08042C7
:102460005A63D0F8BC30190709D443F00803C0F808
:10247000BC30436E40334366836E403B8366037BD0
:1024800043F002030373802070475A6B22F08042AE
:102490005A63D0F8BC301A0701D44020704723F0AB
:1024A0000803C0F8BC30436E403B4366836E403344
:1024B0008366F2E700EF00E00C4A03469068A0B1A3
:1024C000D0F8BC20406E12F0080F0CBF40228022D2
:1024D00013F1160F04D0821A9A4205D8834203D210
:1024E000814228BF0020704700207047000600206E
:1024F00008B514460D460022E1EE102AEFF31482CF
:1025000022F0040282F31488BFF36F8FBFF36F8F42
:10251000084A906000F0A0FB204685F3098800215E
:1025200063B681F31188BFF36F8F0022002304F09C
:1025300058F900BF0006002001B572B60B4AD069F9
:1025400000281EBF0021D16105F044F962B6EFF307
:102550000580A0F110004FEAC0000549014409C9F7
:102560009847BDE8014003490847000000060020E5
:10257000D47A000079250000044B9968186A8842D3
:1025800003D003494FF080520A60704700060020D4
:1025900004ED00E0F0B585B000243B4B0293CDE99B
:1025A0000044234607460E4601223849204604F0DF
:1025B0008CFB374B9B6ADB0409D5364B33490094BF
:1025C000CDE9014301222346204604F07EFB304B37
:1025D0009B6A1D0509D5304B02930023CDE90033DA
:1025E0002A490122184604F070FB294DAB6A9C056C
:1025F0001ED50024294B0293012223462046CDE913
:102600000044224904F061FBAB6BAA6A10040FD5A9
:102610000393234B1D490094CDE901430122234636
:10262000204604F052FB1FB1AB6A23F40043AB62B7
:10263000174B9B6A590509D51A4B02930023CDE924
:10264000003312490122184604F03FFB104A936AF6
:1026500013F4807312D0144B02930023CDE900339E
:102660000A490122184604F030FB094A936A002007
:1026700043F47F439362307005B0F0BD926A9204D8
:10268000F3D50A4A0292E9E759810000D87C00009C
:1026900000ED00E06F810000808100009381000068
:1026A000AC810000C1810000DC810000F4810000E9
:1026B0001FB50024334B0293CDE900442346324931
:1026C0000122204604F001FB304B9B6A9B0109D597
:1026D0002F4B2D490094CDE901430122234620468A
:1026E00004F0F3FA294B9B6ADC0109D5294B0293CC
:1026F0000023CDE9003324490122184604F0E5FA0D
:10270000224B9B6A180309D5234B02930023CDE982
:1027100000331D490122184604F0D7FA1B4B9B6A6F
:10272000590309D51D4B02930023CDE90033164907
:102730000122184604F0C9FA144B9B6A9A0309D582
:10274000174B02930023CDE900330F4901221846AD
:1027500004F0BBFA0D4B9B6ADB0309D5114B0293C6
:102760000023CDE9003308490122184604F0ADFAF0
:10277000064A936A6FEA03436FEA134300209362A9
:1027800004B010BD23820000D87C000000ED00E002
:102790003B8200004E8200006882000086820000BA
:1027A000AB820000C58200002DE9F04385B0002413
:1027B000494B0293CDE90044234680468946204692
:1027C00046491646012204F080FA454B9B6AD8061A
:1027D00009D5444B41490094CDE9014301222346E8
:1027E000204604F072FA3E4B9B6A190709D53E4B0E
:1027F00002930023CDE9003338490122184604F042
:1028000064FA374DAB6A9A0736D46FF01507344B2C
:102810009B6ADD0709D5354B02930023CDE90033D0
:102820002E490122184604F050FA2D4B9B6A9C0653
:1028300009D52F4B02930023CDE90033274901220C
:10284000184604F042FA264CA36AD80636D4A36A86
:10285000990733D40020A36A214A9B0642BF636ACA
:1028600023F400536362936A43F0FF0393620023EF
:10287000337005B0BDE8F08300241E4B0293CDE910
:102880000044234615490122204604F01EFA6F6BCE
:10289000AB6A1B06B9D5184B10490397CDE9014324
:1028A000009423460122204604F00FFAB9F1000FEC
:1028B000ADD0AB6A23F08003AB62A8E763681A056A
:1028C000C8D541463846FFF7F7FD0028C2D080F34F
:1028D00009880220BFE700BFF0820000D87C00001A
:1028E00000ED00E0068300008081000067830000A7
:1028F000F481000039830000518300002DE9F0418C
:10290000724B5F68A2B00546C7F30804002383F347
:102910001188BFF36F8F02F07F40B0F17F4F0CD171
:1029200002F00C00082819D1694A6A490093CDE9E0
:1029300001321846012204F0C8F9002635464FF04E
:102940000008E31E8DF81F80092B00F2A580DFE848
:1029500003F00B999D95A3A3A3A3A3A1120746BFC0
:102960000D461E460126EAE75B4B5A49574FCDF804
:102970000080CDE9018300230122184604F0A5F967
:102980008DF81F80FC6A14F0020405D0534BCDF87B
:102990000080CDE9018306E0FB6A002B0BDA504B87
:1029A0000094CDE9014300234A490122184604F06E
:1029B0008CF900243AE0FB6A5B00FAD5494B4549A3
:1029C0000094CDE9014301222346204604F07DF91D
:1029D0007B69AA6943F480737B61BFF34F8FBFF3B8
:1029E0006F8F7B6932F8022C23F480737B61BFF315
:1029F0004F8FBFF36F8F4DF602739A4209D0BB6AB7
:102A0000DBB26BB30DF11F0201212846FFF7CCFEAC
:102A100036E02B680393344B0094CDE90143204604
:102A200023462C49012204F050F92C689DF81F30F0
:102A30009BB96822294608A804F081F90F9B002E53
:102A40003ED0C3F3080222B96FEA53236FEA43234F
:102A50000F9308A92046FFF747FB22B0BDE8F0819D
:102A6000BB6A13F47F4F05D00DF11F010120FFF762
:102A700091FD05E0BB6AB3F5803F9AD3FFF718FEDE
:102A80000446D3E70DF11F020021BEE70DF11F013F
:102A90000020ECE7154B7AE7154A164B0D4917F461
:102AA000F87F18BF1346103CCDE90334124B029354
:102AB0000023CDE900330122184604F006F978E737
:102AC00023F4FF7323F00103C2E700BF00ED00E031
:102AD000B4830000D87C0000DF830000F683000090
:102AE00017840000258400004484000060840000F6
:102AF0009B8300008683000084840000024A53699F
:102B000043F010035361704700ED00E0EFF30880DD
:102B1000EFF3098101B57246FFF7F0FE01BD00BF7A
:102B2000044800232021C2180133302B82F80013FF
:102B3000F9D1704700E100E0002080F31488BFF372
:102B40006F8FFEF70DFE00200D490860BFF34F8F19
:102B50000C4880F3088800F02BF8202080F31188BF
:102B600009484FF40461401880F30988EFF314809A
:102B70000221084380F31488BFF36F8FFFF794FBA3
:102B800094ED00E0001B0020000D00200749D1F863
:102B900090200023C2F307221846934200DB7047BF
:102BA000C1F89830C1F8A0000133F6E700ED00E06D
:102BB00008B572B6002383F31388FFF7E7FF144BC1
:102BC0004FF0FF32C3F88020C3F88420C3F8882078
:102BD000C3F88C20C3F89020C3F89420C3F8982041
:102BE000C3F89C20C3F88021C3F88421C3F888214E
:102BF000C3F88C21C3F89021C3F89421C3F898211D
:102C0000C3F89C2162B6BFF34F8FBFF36F8F08BD2F
:102C100000E100E0084B9B6883420BD1EFF3058392
:102C200043B1064B5A6842F080525A605A6A22F405
:102C300000425A6203F0B4BB0006002000ED00E041
:102C4000024B034A0348012100F08CB80000022027
:102C5000000000207C7D000010B50446FFF7F4FB67
:102C6000626E03460548D21AC0E90023044B836014
:102C7000BDE81040012100F07FB800BF90040020A3
:102C800000000B15F0B5284E85B000258D4215DAF1
:102C90004468002C45D0D3B104F1FF3C14EA0C0F7A
:102CA0000FD0224B0395029300230122CDE900337C
:102CB0001F49184604F019F86FF01502104605B0C8
:102CC000F0BD1F2CEDD907681CEA070FE9D1202CB5
:102CD0000768D0F808C05FFA82FE10D9B4F1004F3F
:102CE0000FD8013CB4FA84F4C4F11F046400BEF1AF
:102CF000070F4CEA040C06D90E4B0392D3E70824C5
:102D0000F5E73E24F3E727F01F04144344F01004D2
:102D1000C6F89820C6F89C404CF00104C6F8A040C4
:102D2000013201350C30B1E700ED00E09B8400007A
:102D3000D07C0000BE840000044B0522C3F8942020
:102D4000BFF34F8FBFF36F8F704700BF00ED00E000
:102D5000BFF35F8F024B0022C3F89420704700BF7F
:102D600000ED00E010B5034C01232278FFF78AFF45
:102D7000207010BD4406002008B5094A00231278CF
:102D8000FFF780FF10F1160F03D0064B0022072833
:102D900000DD08BDC3F89800C3F8A0200130F6E7B5
:102DA0004406002000ED00E014490868082810B52A
:102DB00021D8FFF7CDFF124C49680022904201F163
:102DC0000C0105D10F4B1870FFF7B6FF002010BDA6
:102DD000C4F8982051F80C3C23F01F03134343F030
:102DE0001003C4F89C3051F8043C43F00103C4F8CC
:102DF000A0300132E2E74FF0FF30E8E7887D0000C5
:102E000000ED00E044060020014B1860704700BF51
:102E1000840100204FF02003EFF3118283F3128826
:102E2000BFF36F8F06490123C1F840354FF0804151
:102E3000C1F8783582F31188BFF36F8F0020704797
:102E400000E001404FF08043C0B2C3F81C05BFF35F
:102E50004F8F0549054BCA6802F4E0621343CB600B
:102E6000BFF34F8F00BFFDE700ED00E00400FA055F
:102E700020B1034B800143F001031847704700BFA6
:102E8000107D0000084B70B5C31A0D4607499B1012
:102E9000044659430648402203F096FF2B4601465C
:102EA0002046BDE870401847B0040020B76DDBB67F
:102EB0005C7A000073B50C4C0C4A4023041B009351
:102EC0000D460B460A49A41061430646094803F023
:102ED000A7FF011E05DA30462B4602B0BDE8704060
:102EE000184702B070BD00BFB00400208B6E000018
:102EF000B76DDBB65C7A0000002270B50121044694
:102F00001046FFF7B5F90F4801F024FE0E4B98422A
:102F100015D104F0E4FA26690C49304603F020FD8F
:102F200000280BDB012535642469084904F11C00E5
:102F300003F016FD002801DBE564002070BD6FF092
:102F40000400FBE7852F00000000AD0BA87D00000A
:102F500070B501460C2309484B43C418D4E90E56FA
:102F600000224033A263184403F01BFF2DB1324608
:102F70002B460348BDE87040184770BDB0040020E0
:102F80005C7A000010B1012804D07047034B1B6C21
:102F90005B0701D1FFF7DCBF704700BFB004002022
:102FA00008B54FF02003EFF3118183F31288BFF3CC
:102FB0006F8F124A136843F002001060DA0708D4DA
:102FC00081F31188BFF36F8F0120BDE8084004F042
:102FD00093BA4FF08043D3F80C24D3F80C34D307C2
:102FE000EED5074803F0DDFE81F31188BFF36F8F44
:102FF0000020BDE80840FFF7ABBF00BF0005002080
:10300000F00400201FB500220123CDE90223094A64
:10301000CDF800D06B46CDF804D003F02FFF002888
:1030200005DB4FF480420023684602F08FFE05B0B6
:103030005DF804FBAB6E000010B54FF02003EFF31A
:10304000118483F31288BFF36F8F074A136823F04C
:103050000201DB07116002D4012004F089FA84F335
:103060001188BFF36F8F10BD000500202DE9F041DE
:103070003849BFF35B8F0746012251E8003F41E822
:1030800000200028F9D1BFF35B8F33B932493348B0
:103090004B60CB608A6003F076FC7B1E012B2BD843
:1030A000012F07D14FF08043D3F81C3403F0030302
:1030B000012B21D004F086FB0546F8B9284B1B787C
:1030C000E3B14FF080430222C3F808230646DFF83D
:1030D00094804FF08044D4F81834D4F81824D203E4
:1030E00016D503F00303012B01D0012F10D15DB3DE
:1030F00086F31188BFF36F8FBDE8F0814FF0200396
:10310000EFF3118683F31288BFF36F8F0125DEE79B
:10311000ADB13046FEF7DCFFD4F81835002BDAD11C
:10312000D4F80421002AD6D0C4F80431D4F80431EC
:103130000123C4F81835C8F88031A360CBE700211B
:10314000212003F0F3F8E7E74FF080430222C3F8B1
:103150000423D1E7AC0400209C040020CC04002010
:10316000560A002000E100E010B5044C2046FEF7AE
:10317000E3F92046FFF748FE002010BD8131000032
:10318000F7B5134E8DF807000446032502F0CEFA7A
:1031900001220DF10701002002F092FA074602F029
:1031A000CFFA27B101233370204603B0F0BD337846
:1031B000002BF9D0013D08D004F004FB0028E5D134
:1031C0000021422003F0B2F8E0E73570ECE700BFE1
:1031D0004506002030B54068057B01F01F04B2F5BC
:1031E000001F85B044EA451405D1204601F034FFA4
:1031F000002005B030BD0025B2F5800FCDE90255A5
:1032000014D1B3F1007F0CBF042305238DF80830DF
:103210000023194602AA204601F05CFD1F4B98428C
:1032200039D10121204601F0CFFEE1E7B3F1C06FB3
:1032300026D0B3F1007F14BF012302238DF808309C
:103240008368CB40D907E3D4B2F1A07FE0D1620913
:10325000012A04F01F03124A03F5E07318BF4FF070
:10326000A04252F82330DB07D2D40DF107052946DE
:10327000204601F055FE0B4B984203D00395C7E75B
:103280000323DBE7284601F099FE044B9842F5D072
:103290006FF00B00ADE76FF01500AAE70000AD0B73
:1032A000000300500400AD0B10B501F077FE04469A
:1032B00068B901F04BFE084B98420AD107482146F5
:1032C00001F028FE224605210620FEF7D1FF00204E
:1032D00010BD6FF00400FBE70000AD0BE132000011
:1032E000420970B5034602D0012A17D070BD0D4EB9
:1032F000326951680029F9D003F01F0301250C68D9
:103300009D400029F2D08A682A4002D04B6830469E
:1033100098472CB1236821461C46F2E7024EE7E7A6
:103320002346F8E78C7A0000747A00002DE9FF410B
:1033300047683B7B01F01F0545EA43150E462846CA
:103340000DF10301144601F0EBFD14F4403F8046FB
:103350000BD1284601F0A8FE3D4B984503D19DF8BE
:10336000030001F025FE00200CE00023194602AA0C
:103370002846CDE9023301F0ADFC354B984204D02C
:103380006FF0150004B0BDE8F081804503D19DF8D1
:10339000030001F00DFEA3034BD540F2063323409A
:1033A000B3F5837F19D00CD8062B17D004D8ABB156
:1033B000022BE5D1042311E0B3F5807FE0D1012396
:1033C0000CE040F20222934227D0B3F5407F26D092
:1033D000B3F5007FD4D1022300E007238DF8043039
:1033E00084F48033C3F30043E0068DF8053054BF06
:1033F000C4F34013032321038DF8063011D57A68F6
:103400000123B340C2F80835002201A9284601F083
:103410000FFD0F4B9842A6D0B2E70523DEE703234A
:10342000DCE7620341BF01237A68B340C2F80C3580
:10343000EAE7E3064FF0000354BFC4F3401403244B
:103440001A4601A928468DF8044001F043FCE0E744
:103450000000AD0B2DE9F04144680569266A88B08B
:1034600007AA0021304603F0CAFF00282ADB079B89
:1034700032681979186801F0E7F9002822DBE3695E
:103480009847AC680126D5E9023203EBC2039C429F
:1034900004D3284603F0BFFD002013E0206804F0A9
:1034A00072F9034688B92279049222681849126891
:1034B0000392184A0090CDE90102012203F065FD54
:1034C0006FF0120008B0BDE8F08120682179E38830
:1034D000D0F810C0D0F80880DCF80070DA0754BFCC
:1034E00043F4B01383F4D01323F4801206FA01FEE0
:1034F000DB074CBF47EA0E0727EA0E07CCF800703F
:10350000D8F8003098470028DCDB0834BBE700BF60
:10351000F07C00003C85000030B5034685B01D6995
:103520004068AA6C2B6D2ABB8BB3696CAB651446E3
:103530001A46CDE90014E96C029131B3002B18BF93
:10354000134600226946039301F0A4FF114B9842F1
:103550000ED06FF0040400221146284603F039FD16
:103560002C6305F1200002F0D1FB002385F85C30CC
:1035700005B030BD696C13B19A4228BF1A460029C4
:10358000AA6514BF14460024D3E70B46D9E71C46AE
:10359000E1E700BF0000AD0B1FB503780C46002B20
:1035A00054D1A26C896D52B191421DD9284A294942
:1035B0000093CDE901321846012203F0E6FC236DA9
:1035C000A26D5BB19A4228D9214B02930023CDE929
:1035D000003320490122184603F0D7FC606D04B087
:1035E000BDE81040FFF798BF521AA2647AB9636B26
:1035F00008336363A36B013BA36304F1480204F146
:10360000380104F1340003F0ADFC6064D7E7636C6B
:10361000002BD4D00B446364D1E79B1A23657BB99C
:10362000E36B0833E363236C013B236404F1500232
:1036300004F1400104F13C0003F094FCE064CDE7A8
:10364000E36C002BCAD01344E364C7E704B010BD99
:1036500060850000F07C00002DE9F04F99468B88D2
:1036600004690F4699048DB08046924634D44FF0D9
:10367000FF324FF0FF3304F1100002F067FB676088
:10368000D8F810B0D8F8043004939BF85D30059357
:1036900023B1DBF800309F4200F0BD80BE8816F4F5
:1036A000006320D0924B02930023CDE9003391496F
:1036B0000122184603F069FC6FF0850523689B889A
:1036C00013F4005304D1636004F1100002F01EFBF8
:1036D00028460DB0BDE8F08FA369002BC7D1636801
:1036E0009F42C4D1CCE716F001020ED0D8F80020DA
:1036F0000392814A7F490093CDE9013218460122A5
:1037000003F043FC6FF01505D8E716F008030AD064
:103710007A4B0092CDE901231346764901221846DF
:1037200003F033FCEEE7C6F34512082A04D0744ACE
:103730000093CDE90132F0E73D68724A954201D825
:10374000714AF5E7049B03F1080EBEE80F000DF186
:103750001C0CACE80F00DEF80030CCF800306B4BEE
:103760009D4240D96A4B9D4240D96A4B9D4240D907
:10377000694B9D4240D9694B9D4240D9684B9D425F
:103780002CBF4FF000454FF08045B207099506F079
:10379000040337D5002B14BF032302238DF82830F0
:1037A000059BC6F300168DF829602BB1049801F033
:1037B00039FE00238BF85D305B465A4A049807A90E
:1037C00001F082FD584B984220D0584B02930023C1
:1037D0000390CDE9003347490122184603F0D5FB99
:1037E0006FF004056AE74FF00075CEE74FF0806593
:1037F000CBE74FF00065C8E74FF08055C5E74FF0C5
:103800000055C2E7003B18BF0123C7E701238BF82F
:103810005D30CBF80070012384F85C30BAF1000F02
:1038200054D1C4F834A00023A36304F1480204F186
:10383000380104F1340003F095FB6064B9F1000F26
:103840004CD1C4F83C900023236404F1500204F1ED
:10385000400104F13C0003F085FB00263246E064A1
:1038600001212046266303F0B4FB4046FFF754FED7
:10387000256DA36C27469D4238BF1D464FF4FA5371
:103880005D4357F8203B4FF4004C1B68B5FBF3F544
:103890003146C83540F2E7304FF47A720023E5FB39
:1038A0000C01FCF72DFC02460B46384602F04EFA9E
:1038B000E0B11F4B0F490096CDE901630122334669
:1038C000304603F062FB6FF07305F7E6DAF800307C
:1038D0006363002BA7D0DAF80430A5E7D9F80030ED
:1038E000E363002BAFD0D9F80430ADE7256BE5E6F4
:1038F0007E850000F07C000098850000BA850000FD
:10390000D985000047E80100088600008FD0030039
:103910001FA107003F420F007F841E00FF083D00EB
:1039200000127A00993500000000AD0B39860000C6
:10393000608600002DE9F04389B0D0F80890DDF8EA
:1039400040C004460E4690461F46BCF1000F1BD1F6
:1039500003AD01226146284603F052FF0E4B00934F
:103960000195D9F8149042463B4631462046C84757
:1039700038B94FF0FF324FF0FF33284602F0E6F936
:10398000079809B0BDE8F083D9F81440A44609B0FF
:10399000BDE8F043604700BF5B7000002DE9F04FC9
:1039A000894687B090469A4683680193534B87684F
:1039B0009A4200F29F80836805A99B6A9847002875
:1039C00040F09380059BB7F840400093B7F8423031
:1039D0001C44B7F844301C440134B8F1000F00F027
:1039E0008980BAF57A7F80F08580009B04FB08F41B
:1039F000B3FBF4F4012C38BF012404FB08F14FF6AB
:103A0000FF70B7F846309C4206DD4FF6FF739842D0
:103A10006BD16FF0850068E0009BB3FBF1FE01FB0A
:103A20001E3383BBB7F84030B7F8425002931D44B1
:103A3000019B1B8F0393019B4FF47A760AFB0EFCCC
:103A4000BCFBF6FC019EDA8EB6F83AB01FFA8EF394
:103A5000A3EB0C0C1FFA8CFCDC45ADB216D9B7F801
:103A60004460664528BF664603F1FF3CACEB060C9C
:103A70001FFA8CFC65450BD25E1B013EB7F8443043
:103A8000B6B2B3420DD201344144BAE75E46EBE729
:103A9000039D1544ADB265452AD95B1B9EB2B34563
:103AA000F1D8B2EB550F4FEA550303D2029A9A426E
:103AB00028BF1A464FF47A7305FB0333B3FBFEF3BA
:103AC0009A4534BFA3EB0A03AAEB03039842DAD961
:103AD000AD1A98B2A9F80220A9F80450A9F8066016
:103AE000A9F80840002BCED1184607B0BDE8F08FEA
:103AF0006546D6E76FF01500F7E700BF40420F00BC
:103B00001FB5026992F87231DBB9012908D0022988
:103B100008D049B982F87111002005B05DF804FBA6
:103B20000221F7E70321F5E7074A0391CDE90132C6
:103B3000184606490093012203F0C8FA6FF0850089
:103B4000EBE76FF00F00E8E7AB860000A07C000019
:103B5000F0B587B0076906460C4640681546012354
:103B60000DF113022D2103F0F3FB00280DDA1D4B9C
:103B70000390029300231846CDE900331A4901222D
:103B800003F0A4FA6FF0040007E024B197F8723153
:103B90002BB90423237095B9002007B0F0BD9DF820
:103BA00013309A0601D50323F4E713F0180F01D060
:103BB0000223EFE713F0010318BF0123EAE770685F
:103BC000022305AA1C2103F0C3FB002802DA074BDD
:103BD0000390CEE79DF814302B709DF815306B7074
:103BE000DAE700BFC3860000A07C0000E686000084
:103BF0002DE9F0430D4609790769082993B0064677
:103C000012D90823CDE903135A4B02930023CDE9BF
:103C1000003359490122184603F058FA6FF0150491
:103C2000204613B0BDE8F083697903290DD9534BC1
:103C3000029300230391CDE900334F490122184636
:103C400003F044FA6FF08504EAE797F8721100294F
:103C500000F0898007F1E40002F078F804460028BB
:103C600040F0848007F5AE784FF0FF324FF0FF331D
:103C7000404603F03AFA97F8FC30DA0719D443F0DB
:103C8000010387F8FC30404603F031FA1A9BC7F86D
:103C9000F4301B9BC7F8F8306A792B6812F0010FDB
:103CA00017D1C3F3D9015B018DF828108DF82930A5
:103CB00023E0404603F01BFA314B0094CDE9014369
:103CC000204623462C49022203F000FA6FF0040438
:103CD000A6E7C3F347518DF82810C3F38A40C3F316
:103CE000014141EA401141F008018DF82910C3F368
:103CF00014218DF82A108DF82B302B79520103F006
:103D00000F0102F040020A438DF82C200BA9EA1D96
:103D10000F3512F8010F01F8010FAA42F9D105334E
:103D20000DF120094022DBB201278DF81C2007ADE0
:103D30000AAA11930DF138080223494670680993C5
:103D40000E950F971092CDF8208003F023FB81236E
:103D500070688DF81C304146CDE90857CDE90E97C3
:103D600003F018FB5CE76FF0720459E76FF00A0488
:103D700056E700BF09870000A07C000028870000EC
:103D80004B8700002DE9F04FDFF874B1D0F810A098
:103D900089B004464FF0FF324FF0FF330AF1D400F0
:103DA00001F0D4FF534E676860682C2101230DF1A8
:103DB0001A0203F0CDFA014650B10023CDE902B05A
:103DC000CDE9003301223146184603F07FF9EBE7D5
:103DD0009DF81A30002BDDD0DB0708D5204603F014
:103DE000B2F99DF81A3023F001038DF81A309DF8CE
:103DF0001A309D0709D50121204603F0A4F99DF84A
:103E00001A3023F002038DF81A309DF81A30580743
:103E100004D500221146204603F06BF99DF81A30B4
:103E2000190704D500220121204603F062F99DF80C
:103E30001A30DB0604D500220221204603F059F98E
:103E40009DF81A3013F0200F0DF11C081AD0D4F889
:103E50001090D9E95553002D14BF424600220DF1B0
:103E60001B0120460593FFF773FE059B50B3224BC1
:103E7000029300230390CDE900331E490122184626
:103E800003F024F99DF81A202AB1D3436068DBB20D
:103E90002C2103F08BFA38693D7DD0F810908268B0
:103EA00041465268904700281AD0BFF67DAF134BA9
:103EB00002930023CDE9003301223146184603F076
:103EC00005F971E7002DDDD09DF81B1099F87021E0
:103ED0008A42D7D089F87011079A2046A847D1E7BF
:103EE000079BD9F800205A400123AB401A427FF4C7
:103EF0005BAF4FE7A07C000084870000AC87000028
:103F00006587000070B5054606698CB0002967D04A
:103F100096F87221002A66D10A890888013AD2B23D
:103F200018B10138800186F8730196F873018C8806
:103F300002434888C9888DF81620013C013840EAC0
:103F4000C40060F07F003F2206F5AE7601398DF89F
:103F500015008DF817204FF0FF334FF0FF32304639
:103F60008DF8141003F0C1F842F6020305AAADF86B
:103F700010300A9204AB042208930B92022308AA81
:103F80006868099306A9CDE9062303F003FA041E25
:103F900010DA164B039402930023CDE90033144941
:103FA0000122184603F092F8304603F0A0F82046AC
:103FB0000CB070BD642368681A46602103F0F6F9FE
:103FC000041E02DA0B4B0394E5E7602368681A4687
:103FD000702103F0EBF9041EE6DA074B0394DAE7ED
:103FE0006FF01504E3E76FF00F04E0E7C28700000D
:103FF000A07C0000E9870000078800002DE9F04D53
:104000000546446807698EB00122002107F1D400FB
:1040100003F0F6FB07F5AE7003F0EBFB012211464F
:1040200007F1E40003F0ECFB206B80B103F0ABFB85
:10403000034660B97C4A7D490093CDE901320122F3
:1040400003F044F86FF012000EB0BDE8F08D206868
:1040500003F099FB68B9236874491B680393744B98
:1040600002930023CDE900330122184603F02EF815
:10407000E8E7E36823B1186803F085FB0028EAD07D
:10408000C0238DF8203008AB0126099368680A9692
:1040900009AB0BA9CDE90B3603F07CF960B1654B98
:1040A00002930023CDE90033324618465F4903F0FE
:1040B0000DF86FF00400C7E7206903F064FB0346C6
:1040C00008B95D4AB7E7E38A2069217D43F480326D
:1040D000D0F810C0D0F808E013F0010FDCF8003081
:1040E00006FA01F614BF3343B343CCF80030DEF8D0
:1040F0000030984760B1514B02930023CDE9003363
:104100004A490122184602F0E1FF6FF015009BE7D3
:10411000237D4B4A4FF0010808FA03F3C7E9012356
:1041200020698368DB69002BEFD042463946984707
:104130000028EAD12069217D02698368126808FAA3
:1041400001F616429E694FF0A07214BF4FF0007343
:104150004FF08063B04706460028D6D1D4E9062345
:10416000D7F8D010103B4FF0000A4FF0000BCDE90C
:104170000330CDE90100334B009507F11000CDE984
:1041800006AB01F069FC1422314607F5827002F09B
:10419000E1FD07F596702822314602F0DBFD87F835
:1041A000706194F82030ADF82C30A78D77B1626A39
:1041B0003B460BA92846FFF7F1FB163023D1224BD3
:1041C0000096CDE90163424633466EE794F821300C
:1041D000ADF82E3094F82230ADF8303094F823301A
:1041E000ADF83230626A0BA9284602F03AFF50B1AE
:1041F000164B0390CDE901730C4900973B46022210
:10420000384602F063FF802002F0AAF8AB680BA9E1
:104210001B692846984700287FF416AFAB68014613
:10422000DB68284698470FE725880000A07C00003F
:104230003F880000548800006688000084880000E1
:1042400049730000853D0000A7880000C988000070
:1042500070B54B01054686B003F0E003E0224068EC
:104260000E460F2103F0A2F8686801230DF1170232
:104270000E2103F06DF865249DF81730B6EB531F3F
:1042800001D100200DE0013C0DD10D4B0D490094F2
:10429000CDE9014320462346012202F017FF6FF0CB
:1042A000040006B070BD0021012002F03FF86868EC
:1042B00001230DF117020E2103F04AF8DCE700BFDD
:1042C000DB880000A07C00002DE9F043D0F81080CE
:1042D000D0F8049098F8723185B00646002B48D08B
:1042E00008F5AE774FF0FF324FF0FF33384602F05B
:1042F000FCFE002308223021706803F057F80421E7
:104300003046FFF7A5FF041E4FF0000511DA1B4BE6
:104310001B490394CDE90153284600952B46012201
:1043200002F0D4FE384602F0E2FE204605B0BDE8B9
:10433000F083384688F8725102F0D9FE30466FF0AB
:104340007202294602F0D5FED9F83000A0B1836888
:104350005B68984704460028E7D00A4B0390CDE9F4
:104360000153074900952B460122284602F0AEFE74
:10437000DBE76FF07704D8E70446D6E7088900004A
:10438000A07C0000308900002DE9FF410769D0F8CA
:10439000048097F872610546002E3FD1D8F83000AE
:1043A00098B183681B689847044670B11D4B039011
:1043B000CDE901631C49009633460122304602F0E4
:1043C00085FE204604B0BDE8F08107F5AE764FF0DB
:1043D000FF324FF0FF33304602F087FE97F871113D
:1043E0002846FFF735FF041E14DA104B0293002312
:1043F0001846CDE900330C490394012202F066FE11
:10440000D8F8300010B183685B689847304602F0F6
:104410006EFED6E7012387F87231F7E76FF0770475
:10442000CFE700BF57890000A07C00007D89000015
:1044300070B5012383400E4ABFF35B8FDC4352E823
:10444000001F01EA040542E80056002EF7D1BFF331
:104450005B8F4FF4803282400648C0F80823BFF3D8
:104460005F8FBFF36F8F0B4214BF0120002070BD20
:10447000200500200010014070B40E49D1E900343D
:10448000D01AC31844F1000422F07F46C1E9003479
:10449000A6F50013B3F5400F09D2074B1B681A0AA3
:1044A0001B069C19054B42F10005C3E9004570BC91
:1044B00002F0BCB8A802002024050020B0020020B1
:1044C00011B3BFF35B8F0123104A834052E800CF42
:1044D0004CEA030C42E800C10029F7D1BFF35B8F1F
:1044E0000B4A4FF480338340C2F80433094BBFF3C7
:1044F0005B8F1B68BFF35B8FC340DB0742BF064B7C
:104500004FF40032C3F80021704700BF200500209F
:10451000001001401C05002000E100E00D4B186870
:10452000010A0006BFF35F8F0B4BD3F80435181850
:1045300041F10001B3F5801F0AD2084BD3E90023F3
:10454000904271EB030303D210F1807041F100013E
:10455000704700BF2405002000100140B002002079
:104560002DE9F74F16461F460446FFF761FF0090FE
:10457000FFF7D4FFB04271EB070351D23A4B301A28
:1045800067EB0101984271F100016AD2374B03EBEE
:104590000413D3E902239F4208BF96424ED0344908
:1045A0004FF4803904F1500509FA04F9AD00C1F85F
:1045B00048932046ADB202F012FF26F07F4B05F182
:1045C000804504F5A8732B4A019305F58835DC4630
:1045D0004FF0030A019B2CF07F4041F82300C1F803
:1045E0004493D1F804856FF00200A0EB080060440A
:1045F00020F07F40904221D9286860B1D1F804852D
:10460000A8EB0B0020F07F40B0F5000F16D9204634
:1046100002F0E5FE174A0AEB080C0AF1010AD9E795
:104620000123154ABFF35B8FA34052E8000F1843E4
:1046300042E800010029F8D1BFF35B8F0B490C98C9
:10464000230101EB0412C2E90267C8500D9B5360BD
:10465000002520460099FFF733FF284603B0BDE848
:10466000F08F6FF01505F4E701008000980200203C
:1046700000100140FDFF7F001C05002073B5194BA1
:10468000194D00244FF0FF304FF0FF31C5F80845B9
:10469000C3E902014FF48033C5F80433134B0226FB
:1046A0004FF400320121C5F804631120C3F88021C2
:1046B0002246FDF7DDFD1120FDF7AAFD0C4A01237E
:1046C000AB602B6013600B4B0B4A009301940023EB
:1046D0002046FFF745FF3046FEF7C8FC204602B0F3
:1046E00070BD00BF980200200010014000E100E012
:1046F0002005002079440000FFFF7F002DE9F743EB
:104700002F4CD4F8043399070BD5D4F8043143B1B6
:104710002C4A0023C4F80431D4F80431136801335F
:104720001360D4F80433DA032AD5BFF35B8F264B2A
:1047300053E8002F22F0010143E800100028F7D1D0
:10474000BFF35B8FD30702D4D4F84031C3B1002547
:10475000C4F84051D4F84031FFF7E0FE4FF0200399
:10476000EFF3118283F31288BFF36F8F174BD3E9F6
:104770000267B042B94106D282F31188BFF36F8F4E
:1047800003B0BDE8F0834FF0FF384FF0FF39C3E9C5
:104790000289D3E900101D604FF48033C4F8483318
:1047A000C4F84051D4F8403182F31188BFF36F8FC1
:1047B0000029E5D0009032463B4628468847DFE78F
:1047C00000100140240500201C0500209802002054
:1047D000431C13B522D0012822DD124A124B90420D
:1047E000D4BF04461C46FFF799FE104B0E49D3E98F
:1047F0000023801AB0F5000F28BF002404448C4227
:1048000028BF0C46A2180A4900914FF00000019001
:1048100043F10003FFF7A4FE02B010BD024CE2E733
:104820000124E0E7FEFF7F00FFFF7F00A8020020D9
:104830007944000008B5FFF771FE024B1B68C01AEF
:1048400008BD00BFA80200202DE9F0432D4E00EB6B
:1048500081010127814202D10020BDE8F083056873
:1048600005F07F037F2BC5F343244FEA154508BFAE
:104870004FF0FF33052D17D0062D19D0042D3DD153
:10488000C2F8083500254FEA531EBEF1010F14BFD0
:104890004FF0A04EB64603F01F0C07FA0CFCCEF802
:1048A0000CC54FF0010E07E0C2F80C350125EAE710
:1048B0000025C2F81035AE4650F8049B09F40058A4
:1048C000B8F1000F03F01F0C4FEA53131CBF012572
:1048D0004FF0000EC9F3C119012B4FEA042343EA3C
:1048E00089030CBFB0464FF0A04843EA0E030CF515
:1048F000E07C43EA450348F82C30ABE76FF08500D5
:10490000ABE700BF000300507FB50BAB05930393EB
:10491000054B02930023CDE9003301221846FDF731
:1049200023F807B05DF804FBAC8900001FB5FCF765
:10493000A7FF0024064B02932046CDE90044054919
:1049400023460122FFF7E0FF2046FEF77BFA00BF77
:10495000AC890000B87C0000024AD2F80034002B79
:10496000FBD0704700E0014010B54FF08053D3F802
:1049700030210D2A55D14FF080410022C1F80C2181
:10498000C1F81021C1F838254C4AD3F80404C2F804
:104990002005D3F80804C2F82405D3F80C04C2F8A3
:1049A0002805D3F81004C2F82C05D3F81404C2F873
:1049B0003005D3F81804C2F83405D3F81C04C2F843
:1049C0004005D3F82004C2F84405D3F82404C2F803
:1049D0004805D3F82804C2F84C05D3F82C04C2F8D3
:1049E0005005D3F83004C2F85405D3F83404C2F8A3
:1049F0006005D3F83804C2F86405D3F83C04C2F863
:104A00006805D3F84004C2F86C05D3F84434C2F802
:104A10007035D1F80034DB0744BF6FF00103C1F8F3
:104A20000034274AD2F8883043F47003C2F8883043
:104A3000BFF34F8FBFF36F8F4FF08053D3F8302108
:104A40000D2A0AD1D3F834313BB14FF01023D3F8FB
:104A500008224FF08043C3F858254FF01023D3F8B5
:104A60000022002A03DBD3F80432002B22DA154996
:104A700001234FF01020C1F804351224FFF76CFF1A
:104A8000C0F80042FFF768FFC0F80442FFF764FF78
:104A90000023C1F80435FFF75FFFBFF34F8F0849CC
:104AA000094BCA6802F4E0621343CB60BFF34F8F37
:104AB00000BFFDE7054B064A1A6010BD00C000406C
:104AC00000ED00E000E001400400FA05F4010020E0
:104AD0000090D00370B501250268BFF35B8FB2FA76
:104AE00082F3C3F11F03DBB205FA03F422EA0404E4
:104AF00050E8006F964204D140E8004CBCF1000F32
:104B0000F6D1BFF35B8FE7D101480B7070BD00BFDA
:104B10000000AD0B10B50368CB40DB0714D40123B4
:104B20008B400268BFF35B8F43EA020150E8004FFD
:104B3000944204D140E8001CBCF1000FF6D1BFF351
:104B40005B8FEED1014810BD0148FCE70000AD0BC2
:104B50000400AD0B044B1A7922B9012218601A71B6
:104B60000248704702487047280500200000AD0B3E
:104B70000C00AD0B10B54FF08043D3F8002152B1BB
:104B80000020C3F80001D3F800210122C3F8082354
:104B9000104B1B6898474FF08043D3F8042172B143
:104BA0000022C3F80421D3F80421D3F81824D3F841
:104BB0001814920704D10122C3F818259A6010BD79
:104BC0000222C3F80823034BBDE810401B680120F4
:104BD000184700BF28050020036803F01F025B0987
:104BE000012B0260024818BF4FF0A040704700BF81
:104BF00000030050034B083033F81000C0F340109E
:104C0000704700BFF801002070B500F108030C4C9C
:104C100034F81330DA0505460E4607D5C3F34323AF
:104C200004EBC30254F8333052689847A3682BB1A1
:104C3000E26831462846BDE87040184770BD00BFA5
:104C4000F801002010B4134A083032F81030D905AA
:104C50001CD5C3F3432123F4F85322F8103002F19A
:104C60000E04002034F8023F13F4807F03D0C3F316
:104C7000432399420AD001302A28F3D1002342F875
:104C8000313005485DF8044BFFF744BF5DF8044B35
:104C9000704700BFF80100206002002038B50246CE
:104CA000FFF7A8FF094C02F1080540B134F81530B0
:104CB00007495B0B03F5A273002041F8230010465F
:104CC000FFF7C0FF002324F8153038BDF80100209D
:104CD000006000402DE9FF41044616461D4601B321
:104CE0004E4F00F1080837F818309B0702D5FFF740
:104CF00081FF10BB0023CDE900338DF80E308DF815
:104D00000F300DF10F020B4620460DF10E0102F09F
:104D100031FC37F8183023F0020343F0010327F881
:104D2000183046B33D4B96F800C0726804F108078E
:104D300033F81710880702D5AAB139481DE021F0D1
:104D40002001C904C90C23F8171062B1BCF1030F8C
:104D5000F3D872681678BCF1000F11D1314A06F50C
:104D6000A27642F826C033F8172022F01C0242EA4D
:104D70008C0223F8172045BB2B4804B0BDE8F08116
:104D8000B20002F1804202F5C04241EA4631D2F857
:104D9000100520F00300C2F81005D2F8100520F429
:104DA0004F3020F44070C2F810052002D2F810E510
:104DB00000F47C5040EA0C4040EA0E0041F0200133
:104DC00023F81710C2F81005CDE7D5E90067204693
:104DD000FFF738FF002ECFD0104DD5E900239642C3
:104DE00001D19F4218D011480DF10F01FFF772FE5B
:104DF0000D4B9842C1D19DF80F2045F8326005EB6C
:104E0000C20308345F6035F8143043EA422343F4A8
:104E1000807325F81430AFE70022EEE7F801002098
:104E20000400AD0B006000400000AD0B60020020EC
:104E3000F0B5044685B0154619B3334E00F10807A6
:104E400036F81720930703D4FFF7D4FE002858D173
:104E500012F01C0F02D04B78012B52D001238DF899
:104E60000F300023CDE900134A1C8B1C20460DF1A6
:104E70000F0102F07FFB36F8173043F0030326F8EA
:104E8000173015B9214805B0F0BD1F4E04F10807D1
:104E900036F81700830734D595F800C061468900BD
:104EA00020F0200001F18041C00401F5C041C00C98
:104EB00026F817000023C1F810356A78002AE1D0DF
:104EC000D1F81035AD7823F4991323F4F853C1F8D1
:104ED0001035D1F810E5230203F47C53120402F4D8
:104EE000403243EA0E0313432A0502F4801240EADB
:104EF0004C30134340F0200026F81700C1F810355D
:104F0000C0E70348BFE700BFF80100200000AD0B79
:104F10000400AD0B014BC3E902017047F80100200A
:104F200008B50246FFF766FE38B1054B0548083262
:104F300033F812305B0B0B7008BD0348FCE700BF71
:104F4000F80100200000AD0B0400AD0B38B50F4C8C
:104F500094F86C50BDB95422294604F1100001F0B8
:104F6000F9FE0620FDF754F9094B0A48C3F87C51B5
:104F7000D3F87C214FF00042C3F80423012384F8C6
:104F80006C30A36638BD0448FCE700BFF801002080
:104F9000006000400000AD0B0500AD0B034B93F823
:104FA0006C00003818BF0120704700BFF8010020D6
:104FB00001460148FFF7AEBD5C02002001460148F2
:104FC000FFF788BD5C02002037B50446FFF712FEEC
:104FD00004F108021E4B33F81230E8B113F0020559
:104FE0001AD15B0B9A0002F1804000F5C24002F139
:104FF000804202F5C04205600068D2F8100540F01A
:105000000100C2F8100529B1012202FA03F3114A86
:10501000C2F8043303B030BDC3F38203042B12D0B3
:10502000052B12D001A80194FFF7D6FD019BD0F803
:105030001015D94001F001010231204603B0BDE84E
:10504000304002F0E0BA0321F7E70221F5E700BFA4
:10505000F80100200060004008B50246FFF7CAFDD5
:10506000C0B102F108010E4B33F81130990711D489
:105070005B0B01229A409B000A4903F1804303F530
:10508000C043C1F80823D3F8102522F00302C3F867
:10509000102508BDBDE808400021104602F0B3BA53
:1050A000F80100200060004013B50E4B00F108022B
:1050B000044633F81230DB0711D5FFF7CDFF204649
:1050C000FFF7ECFD01A80194FFF786FD019B03F5B6
:1050D000E073022240F82320034802B010BD0348C9
:1050E000FBE700BFF80100200000AD0B0400AD0B92
:1050F0002DE9F04F684B69486949002687B00122C5
:1051000034461D6835B1D0F8045315421EBF1C60EB
:105110001D68164304338B424FEA4202F1D1DFF897
:105120007C91D9F87C31002B00F099804FF0A0439E
:10513000D3F820250492C3F82025D3F8202805921F
:10514000C3F820284FF000080DF1100A4FEA481369
:1051500000934FF0010B49E0009B524A94FAA4F4EB
:10516000B4FA84F41C44E00804F10803039432F810
:1051700013701AF8003004F007020BFA02F223EA67
:1051800002030AF8003003A8FFF726FD039B03F58E
:10519000E073B90850F82330C7F382054A072F4659
:1051A000C3F301432CD520463946DDB2FFF72CFD71
:1051B00003A80394FFF710FD039B03F5E07350F879
:1051C0002330C3F301439D4207D10021204602F062
:1051D0001AFA2946204602F016FA03A80394FFF7AC
:1051E000FBFC039B0BFA03F3C0F820355AF8284068
:1051F000002CB1D1B8F1000F1DD14FF00108A5E787
:10520000022B0CD10321204602F0FDF905F0050325
:10521000012BE2D139462046FFF7F6FCDDE70221FB
:105220002046019302F0EFF9032DF3D0019B032BED
:10523000D3D1022DEDE74FF0A042C9F87C41D9F857
:105240007C311949D2F820350493C2F82035D1F8C1
:10525000202505921343C1F820257FF473AF012464
:1052600016B907B0BDE8F08F96FAA6F3B3FA83F348
:1052700004FA03F29B0003F1804303F5C04326EADE
:105280000206D3F81005D3F81015C0F30520C1F3BA
:105290000141FFF7B9FCE3E7006100400060004016
:1052A00020610040F801002000030050036803F073
:1052B0001F025B09012B0260024818BF4FF0A0409B
:1052C000704700BF000300502DE9F3410779524CAD
:1052D0004FF0280C0CFB07FC064604EB0C00057F86
:1052E000002D40F09680356844F80C204360CB7B5D
:1052F00080F82530CB7883774B79C377CB7B002B35
:1053000040D10B7B0878012B7AD802F0A6F90B78F4
:10531000019301A8FFF7CAFF019B03F5E073012287
:1053200040F823204878FF280CD002F096F94B78FB
:10533000019301A8FFF7BAFF019B03F5E073032275
:1053400040F823208B78FF2B0CD001A891F80E8019
:105350000193FFF7ABFF019B03F5E0734FEA88026F
:1053600040F82320C878FF280CD002F069F9CB78E8
:10537000019301A8FFF79AFF019B03F5E073032255
:1053800040F823200B7C93B94B780878FF2B18BF8B
:105390001A468B78C5F8080508BF4FF0FF32FF2B7F
:1053A00008BF4FF0FF33C5F80C25C5F810358B68E2
:1053B000C5F824354B7B0A7B003B18BF0123022A2A
:1053C00021D0032A22D0012A01D143F00203C5F8DB
:1053D00054350123C5F8003528237B43E35823B116
:1053E000306840F30730FCF713FF282303FB074422
:1053F0000023637709480123237702B0BDE8F081D9
:1054000002F01EF983E743F00403E0E743F00603EC
:10541000DDE70348F1E700BF300500200000AD0BD9
:105420000500AD0B70B50679194C05682823734348
:10543000E35833B145F30730FCF7F8FE0423C5F811
:1054400008330023C5F80035282303FB064393F8EF
:105450002530BBB9D5F8080502F0E4F8D5F81005F9
:10546000421C01D002F0DEF8D5F80C05431C01D037
:1054700002F0D8F8282303FB0643987FFF2801D0C9
:1054800002F0D0F8282303FB06440023237770BDE5
:10549000300500202DE9F8430779394C28237B4358
:1054A0009046E2180E46517F8146002966D1E358A6
:1054B0000BB10123537796E80F00282505FB07451C
:1054C00005F10C0C8CE80F00A87F0023FF2885F85D
:1054D000243001D002F0C1F82823B8F1000F06D023
:1054E00003FB0743002227485A77BDE8F883D9F821
:1054F000005003FB07430422C5F80823C3F82080AB
:10550000C5F80881D5F8082172689AB133681B780C
:10551000C5F81C357368012B0ED933685B78C5F864
:105520001C3528237B43E65876B10423C5F80433A1
:105530001548DAE7DB7FEBE7F368012BF1D9282385
:1055400003FB0743DB7FEAE707EB870104EBC101BD
:10555000D5F80831002BFBD0C5F808612846D5F8EE
:10556000083102F087F80028F2D1282303FB074412
:10557000A07FFF28DCD002F063F8D9E70348B4E746
:10558000300500200300AD0B0000AD0B0B00AD0B90
:1055900010B50C480C490023C0F80831D0F8083188
:1055A00002F068F868B9887FFF2801D002F048F857
:1055B00000234B770B72BDE81040D1E9003103485E
:1055C000184710BD0030004030050020380500208D
:1055D00010B5114C114A1249032323616361114B29
:1055E000A261E3614FF4806323620023A3626362DC
:1055F000E36222660C4A62661022A266E01D2367FF
:10560000E366636701F081FB0849204601F07DFBFA
:105610002023A37110BD00BF58050020E9890000B8
:10562000F28900005606002046060020F689000098
:105630002DE9F84F214F4FF0180B14460BFB007269
:105640000646936A556AAB42884631D8D2F820A004
:10565000AAEB050909F1FF32944211D8182306FB81
:1056600003333B44224658684146284401F067FB17
:105670002C44182303FB067301205C62BDE8F88FFD
:1056800013449C4218D800FB0BBBBB444A46DBF8D2
:1056900004002C44284401F052FBB4EB0A04E8D087
:1056A000DBF80400224608EB090101F048FBE0E7C3
:1056B000013B5B1BA342D1D20020DFE7580500204D
:1056C000F8B5144B182700FB07751D4407FB003382
:1056D0000E46DB6A012B14460AD0022B14D023B9E4
:1056E000284601F0FAFF844208D900242046F8BD7C
:1056F000284601F0F2FF844228BF04462246314684
:10570000284601F0F3FFF1E72846BDE8F84002F033
:1057100008B800BF58050020034B182202FB0033D5
:105720009A6A586A801A70475805002003484FF05B
:10573000FF324FF0FF3300F033BA00BF8002002089
:10574000014800F0A7BA00BF800200202DE9F04117
:10575000064686B00F464FF02003EFF3118883F31F
:105760001288BFF36F8F00F015FE042E96BF224BF8
:10577000224B53F82630224903960024CDE9043405
:10578000204B0094CDE901430546234601222046E3
:1057900002F004F86FB1FB69C3F308034BB11A4B75
:1057A00017490094CDE9014301222346204601F028
:1057B000F5FF2DB1284602F00BF808B1037803B9C4
:1057C0001248134B02930023CDE90350CDE9003377
:1057D000184601220A4901F0E1FF39463046FFF739
:1057E000A5F888F31188BFF36F8F284606B0BDE88F
:1057F000F041FDF70FBA00BF0C7F0000FD890000EB
:10580000D87C0000138A00003B8A00000B8A00004D
:105810005C8A00000F4B70B553F82040013053F8FC
:105820002060A64200D870BDD4E9003528469847CC
:105830006DB138B10028B8BF4042EB68FF28A8BF5F
:10584000FF201870EA68537843F00103537008345E
:10585000E7E700BF207F000008B50A4B01220320C4
:105860001A70FFF7D7FF00F055FF0420FFF7D2FFB3
:1058700000F01EF9FBF732FC034A137B23F001030F
:10588000137308BD560A00207803002008B50348AA
:10589000034A0021121A01F091FF08BD980200206E
:1058A000580A002070B5164E164D1749C02386B011
:1058B00003FB006601220023CDE904230F22CDE97A
:1058C000023201931C2303FB005504464FF4C070C1
:1058D00000FB04110D4B00954FF4A072304600F010
:1058E00089F8737B0A4AEE6023F0040373734FF464
:1058F000086304FB033313442C756B6006B070BD62
:10590000B80200200006002080150020695B00001E
:10591000000D002080B50020B6B0FFF77BFF2E4BB6
:1059200083F308882D4D2E4E6B692E4F43F4007380
:105930006B610024E02385F82230EC772C766C76BE
:10594000AC7685F820406B6A43F4E0236B6285F8FF
:105950002340FDF7D3F8FCF7A7FB4FF0FF33AB6212
:10596000EB62FDF721FAFDF76BF9FBF779FF40F2E7
:105970000113ADF8243006ABB360CDE91F44229487
:1059800001F000FF0120FFF745FF0220164DFFF751
:1059900041FF00F03DFC154B35620593012314498E
:1059A0000094CDE903434FF480623B46CDE90144C6
:1059B000284600F01FF86A7B064622F004022846BB
:1059C0006A7301F085FF2046FFF76CFF3A463146C7
:1059D0002846FCF78DFD00BF8015002000ED00E09B
:1059E000000600205958000078030020BE8A0000FD
:1059F000001700202DE9FF410E9E06730426467312
:105A00000D9E867300F158050F46D61DC0E9165548
:105A10000C9A002526F007064037C0E90655C0E974
:105A200019768560C573C56606F1400802920B9A27
:105A3000019288440A9A009242460446FCF7D4FC3C
:105A4000044B65659B6803B11B6F2367404604B038
:105A5000BDE8F08100060020F0B587B0002505956F
:105A6000109D04950F9D03950E9D0295DDE912761C
:105A70000D9D01950C9D00950446FFF7BBFFB6F107
:105A8000FF3F08BFB7F1FF3F05D056EA070305D136
:105A9000204600F03DFB204607B0F0BD03493A46E2
:105AA000334604F1180000F043FDF4E73D780000B0
:105AB0002DE9F043294C2A4D87B02646AE4204F129
:105AC00030040FD300F074FB244CDFF898904FF4AF
:105AD000004640F2E737AC4220D307B0BDE8F043C0
