:1000000040570020FD2C01004BE60100D12C0100DF
:10001000D12C0100D12C0100D12C010000000000E6
:100020000000000000000000000000004D2601005C
:10003000D12C010000000000F9250100D12C0100A5
:10004000FD26010077050200FD260100FD260100C6
:10005000FD260100FD260100FD260100FD26010010
:1000600025050200FD260100FD2601005D050200B8
:10007000FD260100FD260100FD260100FD260100F0
:10008000FD260100FD260100FD260100FD260100E0
:10009000FD260100FD260100FD260100FD260100D0
:1000A000FD260100FD260100FD260100FD260100C0
:1000B000FD260100FD260100FD260100FD260100B0
:1000C000FD260100FD260100FD260100FD260100A0
:1000D000FD260100FD260100FD260100FD26010090
:1000E000FD260100FD260100FD260100FD26010080
:1000F000FD260100FD260100FD260100FD26010070
:1001000053B94AB9002908BF00281CBF4FF0FF317E
:100110004FF0FF3000F00CB8ADF1080C6DE904CEE3
:100120000CF0EAFADDF804E0DDE9022304B07047E0
:10013000704700BF2DE9F00791E8F807B2E8021018
:100140005B1854EB0C04B2E802104D4156EB0C0660
:10015000B2E802104F4158EB0C08B2E8021059EB1C
:1001600001095AEB0C0A80E8F80780410130BDE82C
:10017000F00770472DE9F00791E8F807B2E80210A0
:100180005B1A74EB0C04B2E802108D4176EB0C069E
:10019000B2E802108F4178EB0C08B2E8021079EB5C
:1001A00001097AEB0C0A80E8F80780414042BDE87B
:1001B000F00770472DE9F007524290E87800B1E867
:1001C00080071740DB1918EA020854EB080419EA03
:1001D000020955EB09051AEA020A56EB0A0678C02D
:1001E00090E87800B1E8800717407B4118EA0208E0
:1001F00054EB080419EA020955EB09051AEA020A48
:1002000056EB0A0678C080410130BDE8F007704720
:100210002DE9F007524290E87800B1E880071740D6
:10022000DB1B18EA020874EB080419EA020975EBF3
:1002300009051AEA020A76EB0A0678C090E8780007
:10024000B1E880071740BB4118EA020874EB0804C4
:1002500019EA020975EB09051AEA020A76EB0A06A1
:1002600078C080414042BDE8F00770472DE9F001B9
:1002700052424FF0040890E8300091E8C000A31B00
:100280001340E41AF618EB1B1340ED1AFF1830C0A8
:10029000C0C1B8F10108EED1BDE8F001704700BF60
:1002A00000B592E8DC072DE9DC07B1E8805702B41D
:1002B000A7FB02510A95A8FB020BE7FB6310E9FBC1
:1002C00062B00B91A8FB0351EAFB6201E7FB64B546
:1002D000E7FB6605E8FB6615CDF830B0A9FB03B671
:1002E000EAFB6316ECFB6356E8FB640BE9FB641B5B
:1002F000EAFB645BECFB646B0D90ACFB0230059C8D
:10030000EEFB6250E9FB6460EAFB64B0E7FB64313A
:10031000E8FB6451069CE8FB6461E9FB64B1EAFB1D
:1003200064010E93A7FB0432079CE7FB6462E8FBC1
:1003300064B2E9FB6402EAFB6412049CE9FB6453C7
:10034000EAFB6463089CE7FB64B3E8FB6403E9FB36
:100350006413EAFB64230F955DF8049B99E800069B
:10036000DDF80080A9FB0854EAFB68B4DDF81080D2
:10037000ECFB6804EEFB6814E9FB6824EAFB6834D4
:10038000DDF80480EEFB6865E9FB68B5EAFB68050B
:10039000DDF81480ECFB6815EEFB6825E9FB683599
:1003A000EAFB68450F96DDF80880AEFB0876E9FBAE
:1003B0006806EAFB6816DDF81880ECFB6826EEFBA1
:1003C0006836E9FB6846EAFB6856DDF80C80ECFB12
:1003D00068B7EEFB6807E9FB6817EAFB6827DDF8FA
:1003E0001C80ECFB6837EEFB6847E9FB6857EAFBCB
:1003F000686708B000BD00BF2DE9F14F87B0FFF777
:100400004FFFDDF81C8008F1200888E8FF00FFBCE2
:1004100087E87F08BDE8F08F00B591E89857A3FB07
:1004200003520195A3FB0401E3FB6420E3FB671087
:100430000292A3FB0752E3FB6802E4FB6415E3FBB3
:100440006805E3FB69250391A4FB07B6E3FB692676
:10045000E3FB6A56E4FB670BE4FB682BE3FB6A5B98
:10046000E3FB6C6B0490A4FB0810E4FB6950E3FB16
:100470006C60E3FB6EB0E7FB6721E4FB6951E4FBD2
:100480006A61E3FB6EB1E4FB6E010592A7FB0832E3
:10049000E4FB6A62E4FB6CB2E4FB6E02E7FB6E1203
:1004A000E7FB6853E7FB6963E4FB6CB3E7FB6C03B2
:1004B000E7FB6E13E8FB6E230695A7FB0954E7FBE9
:1004C0006AB4E7FB6C04E8FB6C14E8FB6E24E9FB00
:1004D0006E34E8FB6865E7FB6AB5E8FB6A05E8FB94
:1004E0006C15E9FB6C25E9FB6E35EAFB6E4507965A
:1004F000A8FB0976E8FB6A06E9FB6A16E9FB6C26AD
:10050000EAFB6C36EAFB6E46ECFB6E56E8FB69B71D
:10051000E9FB6907E9FB6A17EAFB6A27EAFB6C3724
:10052000ECFB6C47ECFB6E57EEFB6E6700BD00BF4B
:100530002DE9F14F87B0FFF76FFFDDF81C8008F160
:10054000200888E8FF00FFBC87E87F08BDE8F08F3F
:1005500030B44FF0000310F8014B11F8015B013A81
:1005600084EA050443EA0403F5D1A3F101034FEA49
:10057000D37030BC704700BF4FF0000310F8012B60
:10058000013943EA0203F9D1A3F101034FEAD37021
:10059000704700BF30B411F8014B12F8015B6C409A
:1005A00000F8014B013BF6D130BC70472DE9F00754
:1005B00091E8F807B2E802105B1854EB0C04B2E8BB
:1005C00002104D4156EB0C06B2E802104F4158EBB9
:1005D0000C08B2E8021059EB01095AEB0C0A8941E8
:1005E000B3F1FF3374F1FF3475F1FF3576F1000696
:1005F00077F1000778F1000879F101097AF1FF3A03
:1006000051F100015B184C414D4156F1000657F184
:10061000000758F1000859EBD1795AEB010A80E83C
:10062000F807BDE8F00770472DE9F00791E8F807F3
:10063000B2E802105B1A74EB0C04B2E802108D41B0
:1006400076EB0C06B2E802108F4178EB0C08B2E8AA
:10065000021079EB01097AEB0C0A89415B184C41D5
:100660004D4156F1000657F1000758F1000859EBCB
:10067000D1795AEB010A80E8F807BDE8F007704726
:1006800018EB040859EB05095AEB060A5BEB070B5C
:100690005FF0000C4CF1000C18EB050859EB060953
:1006A0005AEB070A5BEB070B50EB0C005FF0000CFA
:1006B00051EB0C0152EB0C0263414CF1000CB8EB16
:1006C000070879F100097AF1000A7BEB040BA841D5
:1006D000B141A241B3416CF1000CBBEB050BB04141
:1006E000B941AA41BB416CF1000C6FEAEC74B8EB64
:1006F000040879EB04097AEB040A7BF1000B70F132
:10070000000071F1000172EBD472A3416CF1000C96
:1007100018EBEC7859EBEC795AEBEC7A5BF1000BC7
:1007200050F1000451F1000552EBDC7653EBEC770D
:100730004CF1000C18EBEC7059EBEC715AEBEC72CD
:100740005BF1000354F1000455F1000556EBDC7633
:1007500057EBEC77704700BF2DE9F14F87B0FFF7FB
:100760009FFDDDF81080DDF81490DDF818A0FFF78C
:1007700087FFBDE8000FFFF783FF03B05DF8048B30
:1007800088E8FF00BDE8F08F2DE9F14F87B0FFF753
:1007900043FEDDF81080DDF81490DDF818A0FFF7B7
:1007A0006FFFBDE8000FFFF76BFF03B05DF8048B30
:1007B00088E8FF00BDE8F08F1FB5144C207A8DF853
:1007C0000100E0798DF80000A079ADF804006079AF
:1007D000ADF80200684606F0AFFC08B1A72110E0B2
:1007E000E068029002A806F0BDFC08B1AB2108E069
:1007F00007480068039003A80FF016F9002803D0FB
:10080000AF21032000F02EF91FBD0000780B00205F
:10081000500B00002DE9F84F0D4681464FF00001C6
:1008200000F10300009120F003002978140006462F
:100830008DF8011000D00020694600F0F3FA06EBB5
:10084000000A287869780027084400F0FF083E462F
:1008500008E02B7AEA79A97968790CF0A0FF761C78
:100860000744F6B24645F4D30AF1030020F0030032
:10087000064604B100203A46414600F079FC0B4997
:100880003044C97859B1297C49B12522C01C20F0D7
:100890000300054604B1002000F0EAFC2844C01D16
:1008A00020F00700A0EB0900BDE8F88F2800002029
:1008B00010B528B1142204490FF0D9FE002010BD54
:1008C0006FF0150010BD0000740B000070B56FF0E4
:1008D0002C0388B91F4C607808B1981170BD01B322
:1008E0006FF015051AB31C48012907D0032908D059
:1008F000042914D0062915D0184670BD117801704E
:1009000019E0917899B1D17889B111781B290ED36A
:1009100051781B290BD31168C0F805100BE0116842
:10092000C16008E0E17821B11178022901D228469E
:1009300070BD11780174012207490020FFF76AFF9A
:10094000B0F5803F02DB6FF00B0070BD0121A1709C
:1009500070BD000028000020780B002010B5074C67
:10096000607820B106F0F8FE20780BF0E5FD00F08D
:10097000CBFC00F0A3FD0020607010BD280000201B
:1009800070B50C46050002D00CB1600702D06FF0C4
:10099000150070BD00F014F9A8B128460BF092FDC7
:1009A0000A4D00220A4928702046FFF733FF0FF056
:1009B0002EFC0021287806F0B7FEFFF7FDFE01208F
:1009C0006870002070BD4FF0FF3070BD280000201F
:1009D000780B002030B589B005000CD00BF018FD65
:1009E0004FF0FF3420B10BF0C9FBB0F5FA7F05D909
:1009F000204609B030BD6FF01500FAE7144C1548D9
:100A0000656000F0F9F900206070A070E0700146A8
:100A1000202268460FF0A5FE20220F4968460FF0FD
:100A200026FE202269460D480FF021FEEFF31084C8
:100A300072B600F077FC0A4800F04CFD18B1C521F1
:100A4000032000F00FF804B962B60020D1E70000DF
:100A500028000020B9070000540B0000780B00208C
:100A6000ED0B00000EB572B6154A5568DDB10022D7
:100A700003466E460A2403E0B0FBF4F0521CD2B2E7
:100A80000028F9D1B0540AE0D8B2B0FBF4F7B3FBB8
:100A9000F4F304FB1700521ED2B23030B054002AD7
:100AA000F2D13046A847BFF34F8F06480168064A87
:100AB00001F4E06111430160BFF34F8F00BFFDE718
:100AC000280000200CED00E00400FA0510B5074CEA
:100AD000A0786178084302D04FF0FF3010BD06F0D7
:100AE0004BFE0120E070002010BD00002800002017
:100AF000064810B581784078014302D04FF0FF30AE
:100B000010BD06F0BBFB002010BD00002800002037
:100B1000064810B581784078014302D04FF0FF308D
:100B200010BD0FF065F8002010BD00002800002067
:100B3000064810B581784078014302D04FF0FF306D
:100B400010BD0FF079F8002010BD00002800002033
:100B50000100000001000000001B1B030200000058
:100B60004C1D000003000000000000000000000019
:100B700000000000D80C2D2F36AEE25C8026804CA1
:100B80003F4D16535096C773054A10B5526812B1BF
:100B9000BDE81040104792210420FFF763FF0000DA
:100BA000980B0020054A10B5926812B1BDE81040BC
:100BB000104798210420FFF755FF0000980B0020F4
:100BC0000548016829B1416819B1806808B1012060
:100BD0007047002070470000980B002002490DC8A4
:100BE00081E80D0000207047980B0020F8B5124CEA
:100BF0000026256811E00098022802D003280CD1B5
:100C000006E0206810B10020266005E028210CE0F5
:100C1000206868B101202660A847684600F020FCE3
:100C20000028E8D0052805D035210420FFF71AFF59
:100C30002D21FAE7F8BD0000300000202DE9F04733
:100C400005462249001D01F58477002608603878A2
:100C500050B1BA783C46791C2846921C0FF007FD2B
:100C600026700420BDE8F087184801F053FE0446C2
:100C7000022804D0042C07D0082C20D023E01349EC
:100C800028460BF0ACFE1EE0104928460BF00CFF86
:100C90000028DCD095F8008095F80290404600F0DE
:100CA00045F80028D3D0B8F13E0F0CD14846B9F131
:100CB000120FCCD000F04CF80028C8D003E0034954
:100CC00028460BF0BAFE2046CCE70000A40B00201B
:100CD00070B50A7882703AB3012A25D813230370BD
:100CE00000230AE001EB430400EB4305A678EE7015
:100CF0006488240A5B1C2C71DBB29342F2D300237C
:100D00000BE000BF01EB430500EB43042E79667155
:100D1000AD882D0A5B1CA571DBB29342F2D3012191
:100D200001EB8200C0B270BD002070BD402803D22C
:100D3000401EC1B2054805E0FF2805D04038C1B2C9
:100D4000024808300CF026B9012070473C00002012
:100D5000401EC1B201480CF01DB900004C0000203B
:100D600010B5074A0168064B91614068D0611C6864
:100D70001832A143116059688843506010BD0000CB
:100D800034000020064A016891604068D060083253
:100D900041F48C2111600349084350607047000002
:100DA00034000020F8074002024902680A614068E6
:100DB000486170473400002007484FF0FF3100229F
:100DC0000160C90C416000F108011F200A604A60FF
:100DD0000831C1E9000270473C00002010B5FFF760
:100DE000EBFF0EF07EFE04460248006800B180472B
:100DF000204610BD540000200149086070470000E3
:100E00005400002002210180418000210171D8217D
:100E1000417142F60C51C180014981600020704748
:100E20002F36AEE2F8B5054608784A78904202D9E6
:100E300040F2B11107E0009545B100264C78A807B3
:100E400006D04FF4E5711720FFF70CFE0126F5E7F9
:100E5000124F314668463C7000F0CAF80020034645
:100E60000099C91C21F0030100916EB907EB8002C3
:100E70009160002106E000BFD2F808C04CF8213094
:100E8000491CC9B2A142F7D30099401C01EB84016F
:100E9000009110F0FF00E3D0481BF8BDB00D00201A
:100EA00070B50446857900F0DFF80C4AE17902EB71
:100EB00085020EE0936853F8213043B1481CE0717D
:100EC000A180906850F821002060002070BD491C6E
:100ED000C9B28142EED3E171052070BDB00D002092
:100EE000F0B441B9104A00252B464FF6FF7402EBCF
:100EF0008106575C0DE0F0BC002070475A19D6F807
:100F000008C092B25CF822C0BCF1000F04D05B1C98
:100F10009BB29F42F2D8224602801046A242EAD0FB
:100F2000F0BC00F02DB80000B00D002070B50646F2
:100F3000A0F57F4043F20205FF381AD009B107201F
:100F400070BD304600F044F8040012D00A48214633
:100F5000026830469047094D0020A96841F82600F4
:100F600000F078F80246214668680CF0DFFB0020AC
:100F700070BD284670BD000078100000B00D002044
:100F800070B50E4605460CF000FC58B10F4800EB5A
:100F90008604A06850F8250038B14FF4C5711720B9
:100FA000FFF760FD40F28911F9E7606800280BD077
:100FB000304600F04FF8014660680CF05FFB0028F7
:100FC00002D0A16841F8250070BD0000B00D0020DE
:100FD00070B50C4605460CF0D8FB002805D0034838
:100FE00000EB8400806850F8250070BDB00D002033
:100FF0002DE9F843164E8846054600242868C01C93
:1010000020F003002860204600F024F8315D4843BA
:10101000B8F1000F01D0002200E02A6801460092DA
:1010200032B100274FEA0D000CF059FB1FB106E06A
:1010300001270020F8E706EB8401009A4A6029683E
:10104000641C0844286014F0FF04D7D0BDE8F8837E
:10105000B00D0020034931F810004FF6FC71C01CA0
:101060000840704774100000014800787047000085
:10107000B00D0020A8020000F5ED00002DE9FF4FA3
:10108000244C064681B020689A46934658B1017AAE
:10109000B14203D9406850F8260040B143F2020043
:1010A00005B0BDE8F08FA5211820FFF7DBFC19463D
:1010B00002980CF08DFB804658460E990CF07EFB92
:1010C000054608EB0500001D87B22068A146394699
:1010D00000680CF0D3FA04001AD0678025802946F6
:1010E000201D0E9D07465A46092300950CF040FA34
:1010F0002088414638440A23029ACDF800A00CF01B
:1011000037FAD9F80000406840F826400020C7E7C9
:101110000420C5E75800002070B5144C23688BB13B
:10112000197A814212D95A6852F8201071B10025FB
:1011300042F820504A8818680CF0F8FA216800201C
:101140000A7A0CE0C6211820FFF78CFC43F202005B
:1011500070BD4B6853F8203033B9401CC0B2824296
:10116000F7D808680CF0D7FA002070BD58000020AE
:101170002DE9F0410D46040090464FF0000606D0E0
:101180000027A00705D086211820FFF76BFC012758
:10119000F7E7CDB1114600200CF0A1FA0C3000EBBE
:1011A00085068FB90A4F04F10C00AA003C60257235
:1011B000606000EB85002060002160680FF0D1FACC
:1011C000414638680CF08BFA3046BDE8F0810000EB
:1011D0005800002070B5084D286800280AD0002467
:1011E00004E02046FFF798FF641CE4B22868007A08
:1011F000A042F6D870BD000058000020094910B583
:1012000002460968002049B10B7A934205D9496822
:1012100051F82210002900D0081D10BDEC21182023
:10122000FFF720FC580000200A4910B50246096863
:10123000002059B10B7A934207D9496851F822101E
:10124000002902D031F8040B084410BDFA211820FF
:10125000FFF708FC58000020014840787047000064
:101260005C00002001484068704700005C000020DE
:101270002DE9F8430C4607461646252110460D4633
:1012800022460CF0BAF9804657B1384641463246FC
:101290002B4600940CF06CF90348476004704670CC
:1012A0004046BDE8F88300005C0000200248427818
:1012B00001784068FFF7DCBF5C00002030B50D49C5
:1012C00001204860821EC1F808230B498860002372
:1012D000C1F80032C1F80823084C2360251D28609E
:1012E0008860C1F808232360286006490448086024
:1012F00030BD000000E0004000F0004000F500407C
:101300000000F63F08F5014010B5FFF7D7FF0CF0DD
:1013100087FA03490148086010BD00000000F63F4D
:1013200008F5014010B5FFF7C9FF0CF079FA00F09D
:1013300087F805490348086000F0B8F8BDE8104098
:1013400000F0DCB80000F63F08F501402DE9F84F49
:10135000824638480FF097F8DFF8D8B028B1012658
:101360000BF10100FF21017000E000264FF48075B1
:10137000314C4FF000082F1D01216160C4F800813D
:10138000C4F80481C4F804A52160DFF8B0901CE023
:10139000D9F80000C00618D50E200CF050FAEFF373
:1013A0001080009072B603212046C4F80413294629
:1013B0000CF052FA30B9394620460CF04DFA08B913
:1013C0000FF0F8F8009800B962B6294620460CF0F4
:1013D00043FA28B9394620460CF03EFA0028D7D007
:1013E000394620460CF038FA0028C5D106BB9BF8D8
:1013F00001108DF80010009900919DF8001009B1BE
:10140000012500E000250BF1010080F80080032099
:10141000C4F80803C4F80481C4F800810E200CF05D
:101420000EFA04480FF046F815B11120BDE8F88F08
:101430000020FBE74003002000E0004010ED00E04A
:1014400010B506480FF032F818B127211D20FFF71C
:1014500009FB02480021417010BD0000400300203C
:1014600070B511490A68EAB100231D4601244A6893
:10147000521C4A600C2A00D34D600E7904FA06F221
:101480000E6816420BD0EFF3108372B60C689443CB
:101490000C6003B962B649680160002070BD5B1C36
:1014A0000C2BE4D3052070BD64000020024800210D
:1014B00001604160704700006400002010B5044CDA
:1014C0002078FF2803D00BF037F8FF20207010BDE4
:1014D0000000002010B5084C617809B10F2010BD44
:1014E0000AF0F0FF2070FF2801D0002010BD73210A
:1014F0001F20FFF7B7FA000000000020014900207C
:1015000048707047000000200648074A818C5288C6
:10151000914204D190F8220008B1002070470120C8
:1015200070470000C41200202C03002001494880AD
:10153000704700002C0300200848094A818C52881B
:10154000914209D14FF6FF71818410F8221F19B121
:10155000002101700120704700207047C412002054
:101560002C030020074810F8221F012907D0012171
:1015700001700548034900888884012070470020D5
:1015800070470000C41200202C0300200649074BBE
:101590008A8C5B889A4205D191F8222012B10160B1
:1015A0000120704700207047C41200202C03002047
:1015B00009498A8CA2F57F43FF3B02D000210160DC
:1015C00007E091F822200449012A02D0016001209D
:1015D0007047002070470000C412002001490880B5
:1015E000704700002C0300200549002081F82200EC
:1015F0004FF6FF70888403490880488070470000D8
:10160000C41200202C03002005498A8C824205D197
:10161000002081F822004FF6FF7088847047000098
:10162000C41200200A4A10B1012807D00EE05078F9
:1016300060B1D2F802000860D08804E0107828B1C8
:10164000906808609089888001207047002070476A
:1016500042030020084A012338B1012804D1137045
:101660000868906088889081704753700868C2F855
:1016700002008888D080704742030020064910B1DC
:10168000012802D005E0487800E0087808B1012080
:10169000704700207047000042030020014908778E
:1016A000704700004A0A002070B50C46054600F05D
:1016B0002BF918B1D0212720FFF7D4F903480121D5
:1016C0000CF0FAFC0248C0E90B5470BD280A002057
:1016D0006C00002001490120487170476C00002017
:1016E0002DE9F84F654E0A9C3578EDBBE2B3DBB3CC
:1016F000D4B306F11405C6E90F0185E81C000027E4
:1017000077713771B7707770F770B781F78100F034
:1017100059F9054600F050F9044606F04DFC06F074
:10172000EDF994F96E0006F0CBFCE06906F0AEFD31
:10173000606906F0A1FD95F8330006F0D7FD4FF083
:10174000010B94F86A10002006F03CFB00287DD0C5
:101750004B4806F09BFB2088FFF766FD70632088EE
:10176000FFF74CFDB06300E009E094F877008DF8D6
:101770000000009800909DF80000A8B902E040F237
:10178000451177E0206F78B1B5F84A00A98A884200
:101790000AD1B4F8741001220844A5F84A0094F85C
:1017A0007600216F09F0D6FC05F18802DFF8D490AD
:1017B00092E80C1189E80C11D5F89820C9F8192085
:1017C000D5F89C10C9F81D1000F030F9228F0146A1
:1017D000BA4610460CF013FAA18E814200D2084698
:1017E000B071B04694F86B10E08F95F82370A68F17
:1017F000082900D104210CF002FA0FB9001D80B2B3
:10180000864200D2304688F8070088F8080095F82C
:10181000220088B189F818B0D5E91E12C9E904126E
:10182000564694F86A000CF0C7F80346FB221549A7
:101830003046009606F0CEF8012000F071FB124809
:101840000068032814D00B2812D000E00EE00D48E9
:101850000E2200214A300EF084FF0A48A98A4A303D
:1018600041802188018095F833100171BDE8F88F1F
:1018700040F202212720FFF7F5F800006C0000205D
:10188000A8200000000A0020501500402DE9FC416E
:101890008846074600F096F81A4C0546B807616A74
:1018A0004E7816D5A06A30B36289D21C0EF0DFFEE6
:1018B000A06A6062694601AAA06B0BF0D6FD009891
:1018C0000BF070FDC8F8000031460122A06B0BF050
:1018D00020FDF8070DD0D5E920011835401C41F155
:1018E0000001C5E91A0115F81809012808D00120DE
:1018F0002876BDE8FC8140F266412720FFF7B2F868
:101900000020F5E76C0000200448007808B10C20A6
:101910007047034900200877704700006C000020E2
:101920004A0A0020124808B5017839B10078012828
:1019300006D040F21A212720FFF794F800F0CAF9E8
:1019400000F03AF890F877108DF8001000990091A7
:101950009DF8001000290AD1016F002907D090F8E6
:1019600076000022BDE80840114609F0F3BB08BD2F
:101970006C000020F8B5002605464E702220094F65
:101980000C4608702E720E223946201D0EF06FFE96
:10199000287A8DF80000009800909DF8000000283B
:1019A000F0D1F8BD580A0020024A9389034393817D
:1019B000526910476C0000200148406870470000E1
:1019C000A80000200148406888307047A800002027
:1019D000014A0021526910476C00002070B505468D
:1019E00001291CD8104CA1698847C0B12079B0B931
:1019F000012D16D104F110000078C10605D4E16A6A
:101A00000978C90601D4012100E00021A26A1AB9AF
:101A100062890AB1C00602D5A089014301D0012024
:101A200070BD002070BD00006C00002010B5FFF7F5
:101A3000C3FF0446FFF7C6FF0146407F0B4A252837
:101A40000AD0262808D0897F252905D094F86A0075
:101A5000042800D1082010BD506890F8621294F854
:101A60006A00BDE810400BF0B5BF0000A8000020E0
:101A70002DE9FF5F8B468146FFF7A4FF0027644CEA
:101A800006468DF808700397019720783D46022896
:101A900004D040F2EA412720FEF7E4FFA07B400695
:101AA00006D44020FFF794FFE08940F04000E08139
:101AB00096F823004FF00108B9F1000F3AD080B139
:101AC00006F056F806F030F858B9606A417841B12E
:101AD0000078317EC0F3C000884202D184F80180D2
:101AE00092E0606A4178618121B1A06B0BF093FDB7
:101AF000A06200E0A562E08940F48070E081606A45
:101B0000F17D0078C0F38000884207D003A800F080
:101B100085F9E08940F48060E08100E00127606A97
:101B2000317E0078C0F3C00088420DD102A800F0D9
:101B30002BF909E008B106F015F8A078401CA07058
:101B4000E08940F40070E081DFF8C4A096F822003C
:101B50000AF13C0A98B1FFF72FFF2E4981F818804F
:101B6000D6E91E23C1E9042390F86A000BF024FF94
:101B70000346FB2227492846009505F02BFF4FF02E
:101B80000008BBF1000F04D1A1780120FFF726FF68
:101B900020B106F05DFB4FF0010802E0002000F0EC
:101BA000BFF99DF8080018B101A90220FFF76EFEE9
:101BB00018484A3017B14289521C4281B9F1000FCE
:101BC00008D0C188491CC1801148A5703C3001F083
:101BD0001DFA02E00189491C0181039840B10BF014
:101BE000E1FBDAF80410401C05720E220CF097FAA3
:101BF000019830B1DAF8041005722A2201980CF02D
:101C00008EFAB8F1000F01D000F064F8BDE8FF9F34
:101C10006C000020000A00202DE9F8438846814628
:101C2000FFF7D0FE294D04462878012804D040F261
:101C300075412720FEF716FF207C0026012720B1E2
:101C4000267400210420FFF7AFFE296A0878C043FC
:101C5000800709D1A07D88BB0220FFF7A5FE286A76
:101C60000078C043800729D0286A407810B102204C
:101C7000A07500E0A77594F8230098B1FFF79CFECB
:101C800013492D7A0E76D4E92023C1E9042390F874
:101C90006B000BF091FE03462A460D49384600962C
:101CA00005F098FE38EA090004D000210846FFF745
:101CB00095FE28B1BDE8F84300F00CB80320D7E743
:101CC000BDE8F843002000F0EFB800006C000020F1
:101CD000000A002010B505F0EBFF05F00FFF0D4CDA
:101CE000E089FFF775FE0C48007F58B10A490E22C3
:101CF00001F10E000EF0BBFC0748242207491D30FD
:101D00000CF021FAE2692179607890470020207078
:101D100010BD00006C0000204A0A00207519000068
:101D2000084810B50078022804D040F24D21272041
:101D3000FEF798FE044901200873BDE81040FFF744
:101D4000C9BF00006C0000204A0A002030B40446DD
:101D50000C48007A0BB1001DC0B23AB9FF2805D17A
:101D600094F86B2094F86A309A4209D021B194F823
:101D70006B1030BC06F090BAFF2094F86A10F8E7B8
:101D800030BC70476C0000202DE9F0410746FFF79A
:101D900019FE214C05460126616A087800F003000F
:101DA00001280CD002280AD003281BD12E74E08908
:101DB00040F40060E0810120FFF7F6FD12E0487872
:101DC00080B1E18941F40061E181A16A002918D064
:101DD000FB2818D8607920B1BDE8F0412020FFF73A
:101DE000F7BD3E70287E012812D02E76606A4078BA
:101DF000002806D0F5E92001401C41F10001C5E9A9
:101E00000001BDE8F081207940F010002071F8E772
:101E100000202876EAE700006C00002070B5054637
:101E2000FFF7D0FD0446807D002826D002280CD183
:101E300017482946406B0BF044FAF8B1D4E91E016B
:101E4000401C41F10001C4E91E010025A575607C1C
:101E5000012670B16574FFF76FFB90B10021082077
:101E6000FFF7A2FDD4E91E01401C41F10001C4E9C5
:101E70001E01E07D012809D0E67570BD40F2E33116
:101E800001E040F2FA312720FEF7ECFDE57570BD68
:101E90006C00002003480078002801D0FFF71ABF2B
:101EA000704700006C0000202DE9F0410746FFF765
:101EB00083FD8046FFF786FD174C05463A46E06AEB
:101EC000606295F8233001214046FFF73FFF95F807
:101ED0002300002668B1206B06F014F90F4806763F
:101EE000D5E92012C0E90412216B606A05F0C4FD37
:101EF00004E0606A06F006F905F000FE17B9304606
:101F000005F0CCFF002198F86A20084606F082F917
:101F100002202070BDE8F0816C000020000A002043
:101F20002DE9FC470446FFF74DFD0546FFF744FD4C
:101F30004FF000088DF800800646DFF8649195F8B0
:101F4000233022464146FFF701FFA87D0127A9F172
:101F5000200440B101281FD0022830D003283CD0F3
:101F600040F2FF2158E0A0795021ADF804008853D9
:101F70004846FFF70BFB28B18020216AFFF714FDCC
:101F80006F742EE06A4601A9606B0BF02DFD206294
:101F900010B195F85D1011B14248206221E09DF822
:101FA000001031B9A0F8008080F8028001210CF007
:101FB00083F8BDF80410206A0CF018F811E0B6F8A8
:101FC0005000ADF804006A4601A9606B0BF00CFDEF
:101FD000206230B940F2E9211EE04846FFF7D6FA08
:101FE000C0B1206A0823017801F0F7010170EA7D91
:101FF00003EAC202114301F0FB0101702A7E0423AF
:1020000003EA8202114301F0EF010170C94389071D
:1020100005D007E040F2F2212720FEF723FDC0782B
:1020200002280FD0606B0BF063FA08B101210AE0BF
:10203000206A0078C043800704D0FFF765FA80F07B
:10204000010100E00021206A027842EA01110170DA
:1020500095F8221081B1417871B1206B06F052F8E9
:10206000104828380776D5E91E12C0E90412216A03
:10207000206B05F001FD03E006F044F805F03EFD9D
:1020800096F86B200121002006F0C4F8E770206A62
:10209000018821828078A0742770BDE8FC87000049
:1020A0008C000020280A0020211D0000711A000069
:1020B000191C0000951E000000487047BD14002048
:1020C00070B5002635460F4C18E0601990F83B219A
:1020D00090F80311012A02D090F84B0160B10A4830
:1020E00004EBC101731C855591F853213046DEB2D3
:1020F00001F5AA7106F0B4F96D1CEDB2A078A84202
:10210000E3D870BDEA1200203403002004498A7825
:10211000824203D9084490F8430170470020704779
:10212000EA12002004498A78824203D901EB0010A8
:102130008330704700207047EA120020054A01EB07
:10214000410102EB41010268C1F80B218088A1F82E
:102150000F017047EA1200202DE9F04107460024E4
:10216000104D19E02046FFF7DDFF030012D02819BB
:1021700090F8430170B904EB440005EB400606F209
:102180000B163A46314618460BF0B1FB3046214655
:10219000FFF7D4FF641CE4B2A878A042E2D8BDE8FF
:1021A000F0810000EA12002004498A78824203D9B3
:1021B00001EB0010C01C704700207047EA1200209D
:1021C00008498A78824203D90A1892F843210AB151
:1021D0000020704700EB400001EB400000F20B10C4
:1021E00070470000EA12002010B540F2D31200211F
:1021F00008480EF0B6FA0822FF2107480EF0B1FA9F
:1022000005480021001F017041704FF46171418049
:1022100010BD0000EA120020340300200B4B10B563
:102220009C7884420FD9184490F8030103EBC00056
:1022300090F853310B70D0F854111160B0F8580178
:102240009080012010BD002010BD0000EA12002087
:1022500007498A78824209D9084490F8030101EBC2
:10226000C00090F85A0100F001007047002070474C
:10227000EA12002001484088704700003003002027
:102280002DE9F0411446012500221F462E462270FA
:1022900000F0F6F8102824D0DFF8548008EBC001D5
:1022A00091F85A1101F00101217000F0B9F80446CB
:1022B000102816D007B13C702046FFF775FF80B19B
:1022C00098F802104046A14203D9011991F84B61D8
:1022D00000E0002608EB040090F83B01012804D040
:1022E000002545EA0600BDE8F0810125F9E7000078
:1022F000EA12002070B50D46064600F0C1F8104CF9
:10230000102807D004EBC00191F85A11C90701D079
:10231000012070BD6178082910D2102808D004EB84
:10232000C000012180F85A116078401C6070EFE70E
:1023300001222946304600F087F8F5E7002070BDFD
:10234000EA12002070B50B4D2878401E44B20AE016
:1023500005EBC40090F85A01C00702D0E0B200F0CB
:10236000EDF8641E64B2002CF2DA034900204870D4
:1023700070BD0000EA120020300300202DE9F0417A
:1023800000242546184E29E006EBC50797F85A01A8
:10239000C00721D0284600F043F80346FFF704FFAA
:1023A00001460020102B09D0F21892F83BC1BCF175
:1023B000010F02D092F84B2102B10120401E0142D0
:1023C0000AD10A4807F5AA7103552046641C97F8FC
:1023D0005321E4B206F044F86D1CEDB23078A84207
:1023E000D2D8BDE8F0810000EA12002034030020BA
:1023F0000246094810B500780B4658B10748817865
:1024000041B10BB1C01C01E00448833005F03CFA37
:10241000012010BD002010BD30030020EA12002072
:10242000084910B5034600208A7806E00C1894F895
:1024300003419C4204D0401CC0B28242F6D8102016
:1024400010BD0000EA12002070B50C4B044618784D
:10245000451C1D70102803D346212820FEF702FBDF
:1024600003EBC0030D68C3F854518988A3F85811D1
:1024700083F8534183F85A2170BD0000EA1200200E
:10248000F0B51A4C0346002025782AE004EBC00280
:102490000F7892F854C192F8536187EA0C075E40B6
:1024A0003E444F7892F855C187EA0C073E448F7836
:1024B00092F856C187EA0C073E44CF7892F857C18C
:1024C00087EA0C073E440F7992F858C192F85921D7
:1024D00087EA0C073E444F795740F74204D0401C2E
:1024E000C0B28542D2D81020F0BD0000EA12002010
:1024F00070B50546FFF794FF10281CD10E4C2078CC
:10250000401EC0B22070A84215D004EBC00204EBFC
:10251000C50102F58070D2F85321C1F85321D0F8DB
:102520005700C1F857012078FFF77AFF102802D032
:10253000204480F8035170BDEA12002005494A7812
:10254000521E4A7001EBC001002281F85A21FFF7A8
:10255000CFBF0000EA1200202DE9F041044600F14F
:10256000880771B104F1AE06751E012916D0022943
:1025700025D0032910D131462846BDE8F0410BF0A3
:102580008EBC4FF42A7200210EF0EBF8384600F0B2
:102590004DF8202084F84902BDE8F08121690D48FA
:1025A0000A460844B0FBF1F0C4F8CC0040F6B8305D
:1025B000A4F8D000638B384600F00EF8DBE7016921
:1025C000B4F87632D4F870223846BDE8F04100F015
:1025D00003B800007FC3C90110B50024A0F84E4025
:1025E00030F8524F4C43B4FBF2F420F8124940F259
:1025F0007124634302EB03135B1EB3FBF2F303820C
:10260000094BB3FBF2F35B1CC3820389634302EB08
:1026100003135B1EB3FBF2F3436003684B43B3FB4E
:10262000F2F1016010BD0000005A6202012180F841
:1026300025100B49C0F86E100721C0F8721000F188
:102640006E010A7822F004020A70FE2180F8A610BA
:102650007F214176034981600021C0E90011704764
:102660002F49043400E0FCFF024991F900100BF0FF
:10267000C7BB00005003002008B57F208DF8000084
:10268000684605F0EDFD40B105484078404241B252
:102690009DF900000BF0B4FB08BD9DF9000008BDDA
:1026A00050030020094908B509788DF800100099F9
:1026B00000919DF8001009B1002008BD0349D1F830
:1026C0000120026049790171012008BD52030020F8
:1026D0000549FF220A700A460368C2F801300079F2
:1026E00050710020087070475203002070B590F8B8
:1026F000322090F83130012403FB01212522B1FB67
:10270000F2F302FB131100EBD10280F8321001F05A
:10271000070392F8262004FA03F31A4204D000BFFC
:1027200080F83310002070BD90F83020B1FBF2F338
:1027300002FB1311491CC9B20023C51895F82B20C0
:102740008A4212D395F82650002200BF04FA02F6FE
:10275000354201D0491EC9B221B1521CD2B2082A59
:10276000F4D304E002EBC301DAE7891AC9B25B1CB7
:10277000DBB2052BE1D31F2070BD000070B5491CF2
:102780000023C9B20124C518AA798A4212D395F848
:102790000150002204FA02F6354201D0491EC9B2A6
:1027A00021B1521CD2B2082AF4D305E002EBC300D7
:1027B000C0B270BD891AC9B25B1CDBB2052BE2D373
:1027C0009D214620FEF74EF9417841B1C0782B2873
:1027D00003D2044A105C884201D1012070470020D6
:1027E00070470000AC08010010B50122C1702B2910
:1027F00002D2064A525C06E0FF2904D040F275413D
:102800002A20FEF72FF9427010BD0000AC0801002D
:102810000449897C490700D408B100207047012091
:1028200070470000BC0D00200348807C800701D465
:102830000120704700207047BC0D00200348807CB9
:10284000C00701D00020704701207047BC0D002058
:102850002DE9FE43884699461546044601A90BF02A
:1028600024F9B0BB029E012088367DB12046FEF7D8
:10287000DBFC04000DD029460AF00CFE18B1184903
:102880004988A94207D20020BDE8FE8386F82400CB
:102890001FE0672120E001466A4620460AF0F3FD6A
:1028A000009800270780877096F8241009B14FF030
:1028B000020841460BF000FC00982A464946C01C1D
:1028C0000DF0D5FE204629460AF09BFD18B186F88A
:1028D00024700120D8E77C212B20FEF7C3F80000EC
:1028E000BC0D0020094882B0007A8DF800000098E5
:1028F00000909DF80000002805D1022204490348F9
:1029000002B00BF00CBC02B070470000D40D0020E8
:1029100065E100002DE9F84FDFF8BC81DFF8BCA1CC
:1029200083464FF001090026D8F80400007A8DF89C
:102930000000009800909DF800102A2906D19AF80E
:10294000131019B1BAF8140000286FD000278DF8C1
:102950000060684600F024F99DF800100029F8D1C5
:10296000002863D00446007A8DF80000009800909B
:102970009DF80050A81E30287BD2DFE800F0183BFD
:10298000279735973B7B977B7B7B417B9797359749
:102990007B7B97359797977B5A97977B977B7B8F16
:1029A0007B97972163698197979797979763626859
:1029B00012B94FF4D27176E059462046904750E064
:1029C0006268002AF8D140F2AD116CE001F070FFAE
:1029D00028B162682AB15946204690477AE001271B
:1029E0003FE040F233215EE06268002AE4D140F229
:1029F0003F2158E06268002ADED140F24B2152E0CC
:102A000060685D4680B104882046FEF70DFC70B119
:102A10006E700F222A70EC80A5F80890314685F878
:102A200004900AF0CEFD55E0CE213CE031E0AE212D
:102A300039E062681AB1594620469047CFE740F224
:102A4000632130E06268002AB6D140F26F212AE0AB
:102A50008BF801601A218BF80010D4F80910CBF81C
:102A600004102672212D24D0142D25D0222D2AD0F9
:102A70002EE01BE06268002A9ED140F2962112E00F
:102A80001748026822B1606828B10088594690470B
:102A90000220BDE8F88F40F29F2104E06268002A1E
:102AA0008AD14FF42B711020FDF7DCFF40F2BD21DD
:102AB000F9E7FFF7B9FE08E09BF80E0000F001000F
:102AC000FFF7A6FE01E0FFF7B9FE00287FF42CAF68
:102AD000002FFBD10420DCE7E80D0020BC0D002016
:102AE000B00000200149087000F0B0B85803002081
:102AF0000249014808607047012B0000B000002027
:102B000038B50D0014D0A88000216972FEF776FB5D
:102B100004460AF09AFC68B101466A4620460AF06B
:102B2000B2FCE88048B1FB280AD94FF4867132E044
:102B3000FC2130E040F205112DE04FF485712AE0D0
:102B400000980BF077FA012804D0022802D04FF445
:102B50008E7120E028722868A8B10099EA88C91C03
:102B60000DF085FD20460AF038FC78B120460021A2
:102B70000AF027FD68B10948C17C002902D0818A8A
:102B8000491E818238BD40F2231104E04FF4947154
:102B900001E040F22D111020FDF764FFBC0D002074
:102BA00038B50246114B002010705868017A8DF834
:102BB0000010009900919DF800500124012D06D0CD
:102BC000EFF3108172B605685D6011B102E000207C
:102BD00038BD62B6017A8DF80010009900919DF819
:102BE0000030002BF4D1147038BD0000E80D002037
:102BF00038B5D0B1416000F108010A70EFF31083DD
:102C000072B6104C0460211F4A684AB1127A8DF8DE
:102C10000020009A00929DF80050012D00D10C6018
:102C20000A68106008602BB105E040F2E221102034
:102C3000FDF718FF62B604480078BDE8384009F097
:102C40005FBC0000EC0D002058030020084810B5C0
:102C5000002141618161C161016212220DF081FD9B
:102C60000348143001210173011D4160016010BD52
:102C7000D40D0020F0B450810C89134694818A89C8
:102C8000DA8148891882CD895D82CE8DAE4208D125
:102C90004D8D854205D10D8E954202D18A8DA2427D
:102CA00001D0012200E000221A754885588AC885A3
:102CB00098898885D8890886F0BC1422014918466D
:102CC0000BF041BA23E300005081888A9081C88AC2
:102CD000D081088B1082488B1346508221220249F2
:102CE00018460BF01CBA000059E30000F0B56FF075
:102CF0001F02010C02EA90261F25A1F5AA405438B4
:102D00000DD0A1F5AA40553809D0A1F52850AA3810
:102D100005D0A1F52A40AA3801D0012000E000200A
:102D2000002213464FEA020482EA0107FF431F43D1
:102D30007F1C0FD006F00107520842EAC73205F0A7
:102D400001075B0876086D08641C43EAC733162C3C
:102D5000EAD3F0BD0020F0BD10B504460BF08CFBAB
:102D600008B3E0430BF088FBE8B1A01680EA6000EE
:102D7000411E084217D020460BF0CDFB182812D870
:102D8000A0B2B0EB144F07D14FF0FF1101EA1421AC
:102D900004F0FF10814206D004484440601E044203
:102DA00001D0012010BD002010BD0000D6BE898ECC
:102DB00010B504480BF071FB0248BDE81040083024
:102DC0000BF06BBBB4000020014800F003B800001A
:102DD000BC00002010B5D0E90021094B094C534339
:102DE0005443514081EAB21282EA41224FEAF14152
:102DF000C0E9002143EAD46303EB8303184610BD06
:102E00006037EFC6BB79379E70B545680C1D00234F
:102E100095F8A62088350126194628460AF06EFE48
:102E200090B12068094A21791040C5F86E0001F080
:102E30000701C5F872100020A5F85A0085F85C60FB
:102E40000420A877002070BD012070BD2F490437F1
:102E500010B5041D04F0E0FC034A01F00701104026
:102E60002060616010BD00002F4904372DE9F84350
:102E70000546037840680F1D00F1880600F5A97427
:102E80008046727F072130460AF038FED0B138689C
:102E9000174A39791040C6F86E0001F00701C6F8EC
:102EA0007210002086F858007077696881F84B012D
:102EB00094F868108DF80010009900919DF80010AA
:102EC00099B902E00120BDE8F883B8F80010A4F831
:102ED0006A1084F869003968E16679682167082218
:102EE000044904F160000BF01AF90020EBE7000040
:102EF0002F49043721E6000070B50D1D446804F029
:102F00008BFC064A104001F0070294F8F6100140CD
:102F100061F3070028606A6070BD00002F49043724
:102F20002DE9F04144680D46037894F8A5208834D3
:102F30000127082120460AF0E1FD30B90023A27FD5
:102F4000194620460AF0DAFD20B394F85F004FF0EE
:102F50000006800719D428460BF0C8F884F86900E9
:102F600035F8050FA4F86A006888A4F86C0094F896
:102F70005F0040F0020084F85F00C0070DD003221C
:102F8000124904F160000BF0DEF894F85F00C0070E
:102F900003D00EE00120BDE8F0810023A27F194696
:102FA00020460AF0ABFD40B1A77784F85C70A4F826
:102FB0005A60607F012804D006E048214020FDF7D8
:102FC00051FD667784F858600020E4E74FE6000082
:102FD000074900F500600013097840B2494249B240
:102FE000084400F30700002800DC0020C0B270474E
:102FF000C4000020044A9268C2F580534B43424308
:1030000003EB223070470000C4000020F8B544688C
:10301000064604F1880500F07FF894F8281001298D
:103020001AD1002818D0706890F85A118DF8001045
:10303000009900919DF8001000F5A97000290BD1AE
:1030400021884181697E0173A97E4173BDE8F84002
:103050001F2202490BF063B8F8BD0000E7E600004C
:1030600000F500610D4A10B500F50060091300136A
:103070004BB292F900404042002140B2A34202DA32
:1030800092F9021005E092F90140A34204DD92F9A1
:103090000310084400F30701084610BDC4000020D7
:1030A0002DE9FC4100224A70A0F5FE750A70A0F5DA
:1030B000BA7495F86B000CF028F90646A068FFF783
:1030C000CFFF070021D020460BF015FB00281CD0B5
:1030D000288869460AF0E9FC18B189217A20FDF7B1
:1030E000C1FC761CF1B202233A4668460CF02CF97A
:1030F00000280AD1064807490079A0FB016508F0BD
:1031000047F880196941C4E90001BDE8FC8100006D
:10311000C400002040420F002DE9F0410746FFF7B0
:10312000ABFA7C68054684F8A10088347F283CD03F
:1031300094F833007E68A0762946A068FFF75AFF0E
:10314000A0601B48407990B1786800F18808D0F8F9
:103150009000FFF785FF50B140460BF0CCFA30B13C
:1031600078683122134900F5FE700AF0ECFF94F9FB
:103170001B000021281A00D5404296F829208242DF
:1031800010DCFF2A0ED0207F401CC0B2207796F8BA
:103190002A20904202D8E07E7F2803D10020E576E5
:1031A000207701210846BDE8F0810020FBE7000000
:1031B000C4000020A130000001484068A0307047E2
:1031C000D000002010B5214C606890F848000BF04A
:1031D000BBFA616881F849004A31FEF723FA60685A
:1031E00090F848000BF0B7FA616881F87D0091F81B
:1031F00049004A310BF094FA30B9616891F84900FE
:103200004A310BF096FA08B1012100E00021606814
:1032100080F85C1019B990F87D00002814D0FFF7F1
:1032200029F80B49A0FB0123606890300BF0E5FA08
:10323000606890F87D0010B10020FEF78DFFBDE8BA
:103240001040002000F038BE10BD0000D00000206B
:1032500040420F00044A0328526800D1516582F8A9
:103260005800002070470000D0000020064808B534
:103270004068007A8DF80000009800909DF80000EA
:10328000002800D0012008BDD00000200249496874
:1032900081F87E0000207047D00000200A48416875
:1032A000886E70B101F16D00FF22027000228A6603
:1032B000027091F86C1001208840044908600020D9
:1032C00070470C2070470000D000002008F5014036
:1032D00002460C4810B58260C0680C4668B100F028
:1032E000E5FF0BF070FB204600F0C0F8002807D087
:1032F00040F69D113220FDF7B5FB40F69711F9E736
:1033000010BD0000D00000202DE9F0410F4C054613
:10331000164660680F4690F848000BF01CFA58B14A
:1033200055B938460BF010FA31460AF06CFB082804
:1033300002D00120BDE8F081606890F848000BF0F1
:1033400003FABDE8F041FEF799B90000D000002073
:1033500010B50A4C6068416D59B102224272098869
:103360004181122206490AF0DAFE616800204865B0
:1033700010BD40F222413220FDF774FBD000002046
:10338000B536000070B5134C15460E46002816D011
:103390004FF00002616801F8512F48724FF00800A9
:1033A00081F82A0014D130460BF0CEF929460AF0F4
:1033B0002AFB6168082881F87B0003D008E04FF001
:1033C0000102E7E730460BF0C6F908B1122070BDE4
:1033D000002070BDD000002010B5B1B10D4A526878
:1033E00082F85F00086810668888A2F8640092F886
:1033F000490052F8541F487252F8080952F8021C4A
:10340000C0F80A105188C18110BD40F6A7313220A2
:10341000FDF728FBD000002002490148C860704732
:10342000E8440000D00000200249496881F84800C3
:1034300070470000D000002070B50546FDF70CFF76
:103440000446FDF70FFF21460BF0D5F9010006D029
:103450000548C06802682846BDE87040104740F63D
:10346000AB213220FDF7FEFAD000002070B5194DD7
:103470000446686890F87010012904D090F8700034
:1034800008B10C2070BDFDF711FF0BF09CFA00F0A5
:10349000C1F84622002168680DF063F969680022CE
:1034A000012081F85D2081F8510081F8582081F8D1
:1034B0007A2081F85E4081F89820072081F850003A
:1034C00001F16D00FF23037081F86C208A660270A1
:1034D000002070BDD0000020054810B5406890F86D
:1034E00048000BF031F9BDE81040FEF7C7B8000006
:1034F000D000002040B1022806D0002203494968CC
:1035000001F8512F087270470122F7E7D000002020
:103510000249496881F8500070470000D00000203F
:1035200010B503460078C00705D058780021FFF792
:1035300091FE00280CD1074C9878616881F848000A
:10354000D878FFF7D7FF6168187981F8500000201C
:1035500010BD0000D00000200148C068406800474E
:10356000D0000020074808B5406890F840008DF86A
:103570000000009800909DF80000002800D0012075
:1035800008BD0000D000002010B500F051F90C4B30
:1035900040B15868012180F84210416D0988A0F8B7
:1035A000441004E05968002001F8420F4880586830
:1035B0001722BDE81040034938300AF0B0BD0000C2
:1035C000D0000020454200000248406890F85800B2
:1035D00070470000D000002010B500F029F90C4918
:1035E00028B1486890F85A0001280ED00CE04968CC
:1035F00091F85800012801D0022805D191F859000E
:10360000012803D0032801D0002010BD012010BDE7
:10361000D000002010B5074C606890F87C000028AE
:1036200007D004F023FB04F047F96168002081F81B
:103630007C0010BDD000002018B500234B7007227D
:103640000A70074A52680372546B4C60047A8DF812
:103650000040009C00949DF80040002CF3D118BD60
:10366000D00000202DE9F041104D06460F46686855
:103670000F4990F87A000C5C204604F037FE686829
:10368000012180F88840252004F006FE384604F029
:1036900039FD4FF00101084626B104F093FB18B93B
:1036A000BDE8F08104F054FB0120F9E7D0000020D0
:1036B000D708010070B51A4E0C467068417A91B176
:1036C000408900210AF058F8050025D028880AF022
:1036D000DAF828880021FDF729FC88B140F2F231A0
:1036E0003220FDF7BFF9416DD0F80E2041F8032FCD
:1036F000428A8A80407B0BF027F87168496D887098
:10370000002565701520207071682122201D093167
:103710000CF0ADFFE57170BD40F2EE31E0E7000066
:10372000D0000020F8B500260F4605468DF8006051
:103730006B4600F095F80100104803D0406880F80F
:103740008160F8BD40689DF80010072F90F8514047
:1037500001D3344602E0220000D10C4680F88140BB
:1037600069680029EDD0697C80F8891069680A6869
:1037700040F8822F89888180F8BD0000D0000020A9
:1037800010B5154942684968137891F88240A34200
:103790001FD1537891F88340A3421AD1937891F8BE
:1037A0008440A34215D1D37891F88540A34210D12B
:1037B000137991F88640A3420BD1527991F8873062
:1037C0009A4206D1407C91F88910884201D10120AB
:1037D00010BD002010BD0000D000002010B5017801
:1037E0008CB001F00F04224601A900F00BFF04F099
:1037F0005FFA00F0A1FB042C14D101A8FFF7C0FF71
:1038000080B10BA800F0A0FB9DF92C0000900748A8
:10381000406890F8883090F8982090F8791001A8C6
:103820000BF086F80CB0052010BD0000D000002081
:103830000448406890F85800032801D000207047E1
:1038400001207047D0000020827C836803484168D3
:1038500091F849004A310AF01AB80000D00000205F
:1038600070B541681E460446C1B1607C0AF061FF34
:10387000104D696891F87C1041B138B10AF0B9F87F
:10388000696801F8780F48700120C8716B6893F877
:103890007800FF2804D0FEF7DBFC3070002070BDFC
:1038A000607C324678336168FEF7EAFC80F0010004
:1038B00070BD0000D00000202DE9FC41404C0025E7
:1038C0006F4660684572416D0A88428108690AF056
:1038D000FCF8616821F8200F486B028B4A80408B0E
:1038E00088808D71FF20C8714FF6FF70088169468E
:1038F000A0680AF024FBA0680078C0F38016606816
:1039000090F87D0020B1394630460AF012FF40B9E8
:10391000606890F85D0058B1394630460AF000FF03
:1039200030B1606800994161BDF80410018302E084
:10393000606845610583616891F87900FF2817D0B8
:1039400001F10E020D31FEF769FC60B16068417B48
:1039500041F002014173D0F88210C0F81A10B0F89B
:103960008610C18310E041F297513220FDF77AF8BA
:1039700091F889004873D1F8820041F80E0FB1F830
:1039800078008880CD600D826068426D90F85E108E
:1039900082F86E1012220B490AF0C1FB6068416D7B
:1039A0002A300A8808498A864A6D92F8AD2081F843
:1039B0003620062205490AF0C6FBBDE8FC8100005E
:1039C000D0000020B5360000700A00203936000013
:1039D0002DE9F0414C4C06460021D4E901507035E8
:1039E0000180032E02D0052E04D051E003210AF0FD
:1039F000BDFA4DE005210AF0B9FAD4E90107416D9D
:103A00004969C7F80F10416DC969F9740A0A3A7516
:103A1000090C7975406D0169808C0AF0DDF9B87583
:103A2000D4E90107406D0169006A0AF0BEF9F87532
:103A3000000A3876D4E90107406D00690AF045F8BC
:103A40007876000AB876D4E90107416D098B07F84A
:103A50001B1F090A7970416D498BB970090AF97009
:103A6000416D51F8AE2F7A6009793972406D90F846
:103A7000B910787A01F01F0100F0E0000843787275
:103A800003F0FAFE797A01F01F0141EA40117972E0
:103A900005F11201A0680AF084FA697EA0680AF0B4
:103AA00086FA606800F14A0590F8497090F87D0048
:103AB00088B1FFF7BDFE30B1606890F8511011B1C8
:103AC00090F87B0002E0606890F87800FEF778FBE1
:103AD00008B1012705462946A0680AF06FFA394661
:103AE000A0680AF071FAA06804F00CFB052E08D15A
:103AF00060682A68416DC1F80A20AA88CA81406DB1
:103B00004772BDE8F0810000D00000202DE9FF5F82
:103B1000654F0446786890F8818090F87D0080B108
:103B200000260025A07CA1680AF003FE8246FFF76C
:103B30007FFE40B1786890F8511021B190F87B0079
:103B400004E00126EDE7786890F878008346FEF7F8
:103B5000E9FA5FEA00090CD05846FEF7D7FA00B13F
:103B60000126BAF1000F04D04846A16809F0F4FE1E
:103B700005467868B94690F849700DB147F00207DC
:103B8000FFF756FEA0B36068D9F80410027891F8E8
:103B900060309A421FD1427891F861309A421AD12E
:103BA000827891F862309A4215D1C27891F86330E8
:103BB0009A4210D1027991F864309A420BD140793F
:103BC00091F86520904206D1607C91F85F108842A0
:103BD00001D1012000E00020344F824697F87800A0
:103BE000082806D097F87B10884202D1012001E016
:103BF00021E00020814625B92EB12046FFF724FEA2
:103C000008B1012000E00020B8F1000F09D097F8BA
:103C10005A10012903D021B95AEA090101D0012122
:103C200000E00021084203D00C2004B0BDE8F09F62
:103C300004F03EF836E004F03BF8B8F1000F31D064
:103C40002046FFF701FE00B975B103A800F07CF92A
:103C5000D9F804209DF90C3092F8790092F8881078
:103C60008DE80B003B4618E0D9F804004D4690F86B
:103C70005900032801D0022814D1BAF1000F11D045
:103C800003A800F061F96A689DF90C3092F8790098
:103C900092F888108DE80B00FE23012120464A325D
:103CA0000AF0CEFD0520C0E7D0000020700A0020F9
:103CB0007FB53F4C0546606890F8811000296CD0B4
:103CC00090F8580002282CD0012843D0FFF7B0FD0F
:103CD000002867D06A686168107891F8603098426F
:103CE0004CD1507891F86130984247D1907891F852
:103CF0006230984242D1D07891F8633098423DD1F9
:103D0000107991F86430984238D1507991F8652053
:103D1000904233D1687C91F85F2090422ED10120EF
:103D20002DE003A800F010F962689DF90C3092F8BC
:103D3000790092F888108DE80B00FF2300212846B7
:103D40004A320AF07DFD6168012081F898000B205D
:103D500004B070BD03A800F0F7F862689DF90C305C
:103D600092F8790092F888108DE80B00FF2300216B
:103D700028464A320AF064FD0520E9E7002091F860
:103D80005A1001290CD058B90A4991F87B0008282B
:103D900003D091F87810814202D003F089FFEBE75D
:103DA0000C20D5E740F6DF613220FCF75BFE000017
:103DB000D0000020700A00207FB51E4C05466068C8
:103DC00090F8811029B190F85800022804D00128F9
:103DD0001BD003F06DFF2AE003A800F0B5F862687D
:103DE0009DF90C3092F8790092F888108DE80B005C
:103DF000FF23062128464A320AF022FD62680B2082
:103E0000002182F8981004B070BD03A800F09CF85F
:103E100062689DF90C3092F8790092F888108DE86C
:103E20000B00FF23062128464A320AF009FD05202F
:103E3000E9E70000D00000207FB589B3012934D024
:103E40000525022904D0062925D003F031FF1FE003
:103E5000064603F02DFF174C606890F88110B9B149
:103E600090F85800012801D0022811D103A800F0D1
:103E70006BF862689DF90C3092F8790092F888101E
:103E80008DE80B00FF23022130464A320AF0D8FCAD
:103E900004B0284670BD04B0BDE87040FFF78CBF89
:103EA00004B0BDE87040FFF703BF04B0BDE8704048
:103EB000FFF72CBED000002070B5114C054661689C
:103EC00091F85D00002819D091F85C00002815D009
:103ED00091F849004A310AF02CFC40B1FEF7ECF8A9
:103EE00061682A46BDE870404A3109F000BD60684B
:103EF0002946BDE870404A3009F0E8BC70BD0000BA
:103F0000D000002002460B4882B0406890F86D1047
:103F10008DF80010009900919DF80010002907D13C
:103F2000816E002904D090F86C0002B007F012B93D
:103F300002B07047D000002010B5FEF79DFB01498C
:103F4000087010BDD0000020074A10B592F900108B
:103F50007F2903D001707F20107010BD4FF489615C
:103F60003220FCF77FFD0000D00000202DE9F04159
:103F70000746FDF771F90446FDF774F921460AF08A
:103F80003AFC050012D02D4C606890F858000128CA
:103F900004D0022802D0FFF74BFC50B16FF013069B
:103FA0003FB3284609F0B3FF50B905E041F2425152
:103FB0003AE041F2485137E0284609F0CAFFC0B163
:103FC0006168284691F87020052A02D241F2CC415E
:103FD0002AE091F870200B2A02D341F2CD4123E070
:103FE000E26891F87010526906EB810151588847D8
:103FF00016E0606890F87010052902D241F238513D
:1040000012E090F870100B2902D341F239510BE005
:10401000E16890F87000896906EB800008588047D5
:104020000F2804D341F25D513220FCF71BFDE168FB
:10403000096951F82000BDE8F0410047D000002098
:1040400010B518B1BDE8104000F022B900291DD00C
:104050000F48416891F870200B2A02D241F2186192
:1040600005E091F870200F2A04D341F21961322043
:10407000FCF7F8FCC06891F8701080686FF02B02B4
:1040800002EB81014058BDE81040004710BD000020
:10409000D000002010B5FFF7BDFA00F007F9054881
:1040A00081680020FFF708FCBDE81040022000F006
:1040B000E1BA0000D000002010B5FDF7CDF80446AD
:1040C000FDF7D0F821460AF096FB50B104F01AF83B
:1040D000002003F0E3FE05490620496881F87000DE
:1040E00010BD40F22B613220FCF7BCFCD000002058
:1040F0000F4910B5486890F87020062A02D241F2A4
:10410000466105E090F870200B2A04D341F2476124
:104110003220FCF7A7FCC96890F87000C9686FF0FE
:10412000130202EB80000858BDE810400047000071
:10413000D00000202DE9F041314C05460E46606864
:1041400090F8700020B1012802D00C20BDE8F08169
:1041500003F032FF03F08AFD03F0AEFB04F0B0F988
:10416000284803F093FE284804F090F8274804F00C
:1041700083F8304603F0C6FF687910B10120FFF7DD
:10418000C1FE2879032801D018B118E040F641217A
:1041900033E061680020032591F8503091F87A20CF
:1041A000521CB2FBF5F705FB172281F87A2023FA9F
:1041B00002F2D20703D1401CC0B20328EED36068DC
:1041C00090F95E0003F07CFF31460120FFF74AFAC8
:1041D0000028BBD000F022F9606890F8510038B197
:1041E000FDF76EFF0A480068032804D00020ADE701
:1041F000FEF7C4F8F6E740F653213220FCF732FC14
:10420000D00000200445000055555500D6BE898ECB
:104210005015004010B50020FFF774FE08484068B4
:1042200090F8700028B1012803D0022804D00C2097
:1042300010BD00F02DF801E000F040F8002010BDA6
:10424000D000002010B500204870192008700F48D9
:104250004068D0F8420048600879012814D1CC8821
:104260000021204609F088FA00280DD0204609F0E8
:104270000AFB00212046FCF759FE002804D04FF429
:1042800082613220FCF7EEFB10BD0000D000002060
:1042900010B5FFF7BFF904490120496881F87000A3
:1042A000BDE8104000F00ABBD00000200249002009
:1042B000496881F870007047D000002070B5FCF7A5
:1042C000CBFF0446FCF7CEFF21460AF094FA040027
:1042D00020D00AF09DFA002000F0FAF9F8B1204D44
:1042E000686890F87000022803D021460020FFF78C
:1042F000B9F9E01C09F07AFB696881F87C0028B103
:10430000402403F0F9FA204603F0BEFCFFF790FAD0
:1043100070B908E040F219513220FCF7A3FBBDE868
:104320007040FFF7B5BF686890F85800022804D1C4
:1043300000210122084603F06DFF6868FF2180F824
:10434000781080F87910002180F8801080F87F10B4
:1043500080F8811080F89810052180F8701070BDE9
:10436000D000002070B5FCF777FF0446FCF77AFF19
:1043700021460AF040FA050028D0194E042074683E
:10438000703400F0A5F930B30C202070002000F04C
:1043900071F928787168C0F3401081F88A0005200F
:1043A000FFF716FB0F4AB1682025506D90F8AD302D
:1043B000087805EA431300F0DF0018430870506DD9
:1043C000A27E10F8AD1F1140017070BD40F29A61DD
:1043D0003220FCF747FBBDE87040FFF759BF0000F3
:1043E000D0000020700A002010B5032000F070F902
:1043F00068B10320FFF7ECFA01221146002003F018
:1044000009FF05490B20496881F8700010BDBDE81F
:104410001040FFF73DBF0000D000002070B5194DDF
:1044200000206C6884F8980094F85C0010B994F847
:104430007D0008B3F4E924106FF00042504070EAA8
:10444000010119D006F0A4FED4E90023801A994195
:1044500012D3FDF70FFF0C49A0FB012368689030D1
:104460000AF0CBF9686890F87D0010B10120FDF7E3
:1044700073FE0120FFF720FD6968022081F87000BB
:1044800070BD0000D000002040420F00AD4200008F
:1044900091420000D7E70000D7E70000D7E700000F
:1044A000BD420000D7E70000D7E70000D7E70000D3
:1044B000D7E70000D7E70000E943000065430000AC
:1044C000D7E70000D7E70000B940000095400000A2
:1044D00000000000E1E700007FE7000091E7000036
:1044E0009FE70000DD370000354100001542000065
:1044F000C8440000D04400008C440000E0440000A8
:10450000D8440000F14000006D3F00004140000031
:10451000F3E7000070B504460078052801D0482173
:1045200058E0A07BC00601D4492153E01C22211D84
:104530002F480CF09CF82E48227B04F120011C30FF
:104540000CF095F82A484FF00102817A490702D50C
:10455000C17CFE290CD0042323700168616041688E
:10456000A1600189A181817A0D0719D5A3732DE07E
:10457000132121700178217162714178A171D0F805
:104580000210C4F80710C188A4F80B10FE21617353
:104590004169C4F80E10018B6182407A207570BDAC
:1045A000CB0703D08B0701D500210EE04B0701D5C7
:1045B000A2730BE0CA0710D18A0701D5022104E0DB
:1045C000CA070AD1890708D40321A173027A1F2AD6
:1045D00005D98D213320FCF745FA8A21FAE704F149
:1045E0000F00BDE8704002491C310CF040B80000DB
:1045F000CD140020002101720422014909F08FBD71
:10460000CBE900002DE9F04116460C46054609F0BD
:104610009CFC6074284609F08FFCA074EA1C144BC3
:10462000901D0021072E1FD2DFE806F0040B111E9B
:10463000131E04001B780DE0E060BDE8F081E1602E
:10464000FBE75B786370C4E901202174F7E79B788E
:1046500000E0DB786370C4E901216A78921F12F0F0
:10466000FF022274EBD0E7E761706160A160ECE7C4
:10467000DA08010070B540B1012806D002280AD03E
:10468000032806D040F6C80115E0BDE8704000F0F0
:104690007DB9012000E000200C4C012184F8241099
:1046A00084F82500206A002580F8485221780529E1
:1046B00004D040F649012120FCF7D4F900F09AFD1E
:1046C0002562BDE8704000F0C5B90000180B00205D
:1046D00070B5054606F05CFD164C2169461A55B1C9
:1046E000032D0DD0042D0ED0062D1DD040F2D63155
:1046F0002120FCF7B7F901200AF005FA983004E010
:104700004FF4577001E04FF4FC70216B3518F43909
:104710008D4207D3002600F0C9FA40B1206BF4386F
:10472000854203D2012602E0012070BD00263046FA
:1047300070BD0000180B0020F0B51E4C074687B076
:1047400020780E4610B10C2007B0F0BDFEF734FD06
:104750000546276297F8480210B14FF43F7125E0F3
:10476000052020700020607084F8240000F0E4FA36
:10477000A0640021104806F0DDFA287020280DD032
:10478000334600220121684600F030FB48B128780A
:1047900069460AF0E3F938B10020D5E740F20A3162
:1047A00004E040F20D3101E040F20E312120FCF72F
:1047B00059F90000180B0020754A00000249096AE7
:1047C000016000F03DB80000180B002070B586B005
:1047D000064611B1112006B070BD174C207808B103
:1047E0000C20F8E7FEF7E8FC054600206070042086
:1047F000207000F0A1FAA0640021104806F09AFA97
:10480000287020280DD0334600220121684600F090
:10481000EDFA48B1287869460AF0A0F938B10020CD
:10482000D9E740F2623104E04FF4597101E040F2FF
:1048300065312120FCF716F9180B0020754A00009D
:104840002DE9F0410027FEF7B7FC184C054620780B
:10485000042805D02078052802D00C20BDE8F0817E
:1048600001206070207B60B1EFF3108672B6207B70
:1048700028B1607B18B109F078FF00F0EBF826B1A1
:1048800004E0287805F0EAFF00E062B6287806F038
:1048900039F900F003FC0020607094F8240000B1A6
:1048A0000C2700F027FC3846D8E70000180B002042
:1048B0000148007870470000180B002010B5104C1C
:1048C00086B0207BB0B16078A0B900231A461946A3
:1048D000684600F08BFA58B1FEF76EFC0078694626
:1048E0000AF03CF930B940F2AE712120FCF7BAF879
:1048F0000120A07006B0BDE8104000F0ABB8000089
:10490000180B002008B5602200210C480BF029FF8D
:10491000FEF752FC2021017000F012F820B140F2A5
:1049200035212120FCF79EF842F210700090012200
:104930006946801000F040F908BD0000180B002007
:10494000034810B5007808B1FFF77AFF002010BDCA
:10495000180B00200C4908B5097821B14FF44771B4
:104960002120FCF77FF80023009301781A46C9073D
:1049700003D0D0E90130012200906946184600F0CA
:104980001BF9002008BD0000180B00202DE9FC4792
:104990002E4C8046D4E904531E4603F0D3FA074652
:1049A000206A012180F86A1080F86B106230FF21C4
:1049B0008172206A4FF0000949462C3009F05EFCF4
:1049C0002A4633460121404600970AF0AEF8276A8E
:1049D00006460D46D7F8108002F05AFA04F140015D
:1049E00088420BD0CDE90065D7E98A0142460AF03A
:1049F00018FC404503D940F20C411DE00020144949
:104A0000074609688842206A016902D20F440162A0
:104A100004E0384609F0CFF9216A0862206A01698A
:104A2000052009F0D0F9216A8884216A0A6ABA1A35
:104A3000904204D840F637012120FCF713F8F21910
:104A400045EB0905C1E98A25BDE8FC87180B002064
:104A5000E000002010B5064C207B002806D003F0B3
:104A600077FA06F08FF900202073607310BD000004
:104A7000180B0020F0B587B00D46FEF79DFB01270F
:104A80003F4C092D78D2DFE805F005394F4F4A77C2
:104A9000646D72002773617800292DD1007805F0CC
:104AA000BBFA05460E46C4E9040100F03FFB18B10D
:104AB00000208DF8040001E08DF8047000F050F93A
:104AC00033462A460AF04CF86168B0FBF1F201FB6C
:104AD000120050B15FF000008DF805006846FEF747
:104AE000ABFC20B14FF4E77143E00120F4E7206B09
:104AF000E338A06306F060FA07B0F0BD607830B12B
:104B000009F033FE07B0BDE8F040FFF7A3BF6773BD
:104B1000FEF722FD0028EFD040F2E11129E007B0B6
:104B2000BDE8F04003F0E8BB0578002301221946F8
:104B3000684600F05BF940B1694628460AF00EF875
:104B40000028D9D140F2C97113E0A77000F01AF81B
:104B5000D2E700F0ABF80028CED107B0BDE8F040B6
:104B600009F001BE07B0BDE8F04000F00BB840F21C
:104B700013212120FBF776FF40F21721F9E700000F
:104B8000180B002010B50B4C207838B100F086FAD5
:104B9000A07850B194F8240028B106E040F27B11CF
:104BA0002120FBF75FFFFEF7EFFCBDE8104000F0AF
:104BB000A1BA0000180B00202DE9F041114D164656
:104BC0000F460024686009F093FFDFF83CC0002125
:104BD0001CF80120324207D057F8243005EB84023C
:104BE0001B1A641CE4B29360491C11F0FF01EFD062
:104BF00016F00E0F04D040F203712120FBF732FFB4
:104C0000BDE8F081180B0020DE0801002DE9F04717
:104C100086B092460746894600F094FA224D4FF03E
:104C200000086A68861841EB08010C460B463246BC
:104C30003846494609F094FF074609F088FF874245
:104C400013DAD5E9060100F07DFA3246234609F071
:104C500087FF6968B0FBF1F1CAF800106868801935
:104C600048EB040106B0BDE8F0878DF80080686B62
:104C7000019009F026FFADF8080001208DF80B0027
:104C8000D5E9060100F05EFACDE9040100F0ECF987
:104C90008DF80A006846696809F03CF8CAF8000017
:104CA000DDE90401DEE70000180B00202DE9F041EA
:104CB00006F06EFA1F4C06460D46D4E9040100F0DA
:104CC000D3F9074605F04CF90246652823D3501C5A
:104CD00024D0216B636B8818834200D85A1A6FF076
:104CE0003900301845F1FF3100F042FA216B0844D9
:104CF000216B451A41F28830854200D9054606F0FD
:104D000047FA801B00F19D00854204D339462846AE
:104D100005F048F820B10020BDE8F081606BE7E7BE
:104D2000206B28442063A06B2844A06306F044F95C
:104D30000120F1E7180B002010B5002409F0D8FE7F
:104D4000064A002102EB810304449B68491C1C4471
:104D500011F0FF01F6D0204610BD0000180B002016
:104D60000149D1E910017047180B00202DE9F041ED
:104D700006461D4888461546D0E90A106FF00042E5
:104D80000127504086B070EA010121D000248DF83F
:104D90000040019509F095FEADF808008DF80B7004
:104DA00009F0D5FE821944EB0800CDE90420022069
:104DB0008DF80A00684605F021FC68B1DDE90410B1
:104DC0004A1909496041D1E90A319A1A814108D446
:104DD000012006B0BDE8F08140F235512120FBF7FB
:104DE00041FE0020F5E70000180B00202DE9FF4FE1
:104DF00087B01446064606F0CBF9994D80468946A1
:104E0000A8684FF0000A0290FFF796FF6968884291
:104E100001D1012000E00020049020400390089878
:104E200000287FD04FF4FA6218EB020B49F100041E
:104E300002F034F800908A480078894F40370528FE
:104E400035D18748006AD0F8300202F007F800999F
:104E50000546884209D082482946006A00F50A7052
:104E600001F0C0FF0020B8610CE07D49086A00F540
:104E70000A70B861086A8A6CD0F83002824200D3A6
:104E8000104688647648006A58B16DB1D5E90113BF
:104E9000D5F800C01CEB030341EB0A01C0E98A31DD
:104EA00005E040F285711AE00021C0E98A11384618
:104EB000009901F097FF6A48009A456892B1D2E9DB
:104EC00001131768CDE900B4F81841EB0A012A462E
:104ED0000AF0A7F90146A84205D940F2F93121208C
:104EE000FBF7C0FD00211BEB01055D495046444125
:104EF0004A68AB1A64EB0A02C1E910320A9A2831F7
:104F000052B142F210735A43AA1844EB0A00C1E9A5
:104F10000020012051E005E04FF0FF304208C1E9D8
:104F20000002F6E70398D8B1012009F0ECFD044631
:104F3000012003F0F7F84AF2A13101444FF47A70EE
:104F4000B1FBF0F0221840464946F432FFF70EFF5D
:104F500008B90020029045464C46CDF814A02DE03B
:104F60003CB105AA40464946FFF750FE05460C46AF
:104F700024E04046494600F0E5F8DFF8E4B0024698
:104F80000846DBF808100291DBF8043057469D18FC
:104F90004AEB0004DBE9040100F0C8F8DBF8041078
:104FA00048430090FFF7DCFE009A80187941CBE976
:104FB00010012146284600F0B9F80590012009F0BB
:104FC000A2FD0746012003F0ADF84AF2A1310144E9
:104FD0004FF47A70B1FBF0F0074428462146F437CD
:104FE000029A00F0C5F81E4901EB8A0292688242DB
:104FF00000D810464863089A0AB1C1E90454C1E9CF
:1050000006548B46049911B1CBF8307001E0CBF80F
:1050100030000120F07209F054FD3081284621460D
:1050200000F022F8B072DBF830007060039848B1ED
:10503000012030700B4A4046494600F099F8C01BE9
:10504000306103E086F800A0C6E90454DBF83400C0
:10505000B84203D301200BB0BDE8F08F0020FAE77F
:10506000180B00200040420F70B504460A480D4658
:10507000017804290DD1406800EB80004600FFF75D
:105080006FFE22462B4609F06BFDB04201D2022092
:1050900070BD012070BD0000180B002070B5144DCC
:1050A00095F8240005F14004002828780FD0052841
:1050B00004D040F257212120FBF7D4FC204609F010
:1050C0001DFD78B12046BDE8704001F069BE05289D
:1050D00008D1204609F012FD20B9286A00F50A70AF
:1050E00001F0A0FE2046BDE8704001F09BBE00002C
:1050F000180B002010B5FEF7D1F80B49002088707E
:1051000081F8240008620870FEF756F8044600781B
:1051100005F0D6FC10B12020207010BD40F2923175
:105120002120FBF79FFC0000180B002010B504465F
:10513000FFF716FE0249201A4968B0FBF1F010BDD6
:10514000180B002070B504460D46FFF709FE2246F5
:105150002B4609F005FD05494C68B0FBF4F04443CB
:10516000FFF7FEFD001941F1000170BD180B002092
:105170000A4B10B5D3E90A43201A63EB010300245C
:105180002146241A994106DA0021141A71EB03040E
:1051900000DA104610BD002010BD0000180B0020E2
:1051A00070B502F0CFFE0D4C06460246D4E901511F
:1051B000284608F090FC6060A84205D0E168401BDA
:1051C0000844E06005F0F8FE6068B04201D3207842
:1051D00008B1002070BD012070BD0000F80D002056
:1051E00003490020086048608860C86000F056B835
:1051F000F80D002010B586B0040005D094F84802E0
:1052000028B140F2771125E04FF4BB7122E094F809
:105210004902202802D040F279111BE021460F48B4
:1052200005F088FD84F8490220280ED000230122D1
:105230002146684609F0E8FC94F84902694609F0FD
:10524000CAFD28B106B0002010BD4FF4BE7101E0C8
:1052500040F27F113520FBF705FC00005D53000094
:105260000149487070470000F80D002070B50546F0
:1052700009484FF47A71B0FBF1F409F039FC0119D7
:10528000284601F59D7109F012F840F64801884260
:1052900000D3084680B270BDF92201002DE9FC411F
:1052A000154D0120287000244FF6FF760BE00021F9
:1052B00008F062FA070009D097F8490205F022FCCD
:1052C000384609F059FD009401940DE040F299111F
:1052D0003520FBF7C7FB009830B190F8481219B1A0
:1052E0000088B042E3D104E06846FBF7D9FD00280E
:1052F000F1D02C70BDE8FC81F80D002010B50446FB
:10530000012902D10A48007840B1042084F84802FB
:1053100002F01EFEBDE8104005F034BD0022012160
:10532000204609F041FD34F89C0F401C2080EFE737
:10533000F80D002010B50446084602F0F3FE0649B9
:1053400000F29D7031F8141008444FF47A71B0FBEC
:10535000F1F000F59D7010BDDAED000070B50400AD
:1053600008D009295FD2DFE801F0073840403C5EF1
:10537000474E5900B72153E094F8480258B32046ED
:1053800000F028F909F0B4FB00F23B1085B294F864
:105390006B00282109F024FC2E18E16A206988425C
:1053A00000D201463246204608F0F1FE1F4D6860EB
:1053B000697821B132462046216908F0E8FEA860EC
:1053C00004F12C0008F044FFA0F59570E860BDE8FA
:1053D000704005F0F1BDBF2122E0BDE8704009F04A
:1053E0000DBDBDE8704002F087BF2046BDE87040AB
:1053F0000122002109F0D8BC012004F0C3FCBDE863
:10540000704008F0D7BA94F84802042801D0FE2171
:1054100006E02046BDE8704009F0AEBC4FF4837151
:105420003520FBF71FFB4FF48571F9E7F80D0020DD
:105430000648054901650649416507480549016572
:105440000649416570470000F9650000F80000203A
:10545000D1660000CFEF0000A4010020F9EF0000AA
:1054600070B50546B0F8D60095F8A910C9B1B5F8E1
:10547000D8100C1AB4F1040495F8D40040B195F892
:10548000A5200023092105F1880008F037FB60B151
:10549000284609F0B7FE38B1D5E93210401A001F8E
:1054A00003E0C0F10204E7E72046A04200DA044628
:1054B000002C01DC002070BDA0B270BD1D481C494D
:1054C00081601D49C1611D49C1621D4901611D49BC
:1054D00041611D4941641D4981611D4901631D49A7
:1054E00041621D49C1641D4981641D4941631D49D3
:1054F00081631E481C4981601D49C1611D490162CB
:105500001D4941601D4901601D4981621D49C162FB
:105510001D49C1601D4981611D4901631D498164A7
:105520001D49C1641D4941641D4941627047000025
:10553000016A0000F8000020456A0000DDEE00006E
:1055400039650000FDEE0000056900008569000076
:105550008D6A000075650000AFEE000079EE000076
:10556000396900005167000097F10000A401002094
:10557000C7F10000CBEF00003DEF000067EF000037
:105580005BF000008DF0000091EF000079F1000069
:1055900001F2000027F0000051F0000057F1000078
:1055A00023F000000648054981650649C1650748A2
:1055B0000549816506490166704700005D67000086
:1055C000F800002095680000B3F00000A40100205E
:1055D000DDF00000F8B5394D0026A5F10C072E705E
:1055E00068607E807E7004463E700088FBF7F6FFA0
:1055F00068680088FBF79AFFB4F84A02401C82B240
:10560000686800F188030146184608F026FC20B1BE
:1056100040F2C1113620FBF725FAA4F84A6294F84B
:10562000A60025280AD1B4F89C00B4F86012401AEC
:1056300000B2002802DB84F8A66011E094F8A5000F
:10564000252803D0262801D027280CD1B4F89C00A7
:10565000B4F86012401A00B2002804DB84F8A56098
:1056600000F0BEFE18B300F043FD002825D16868A5
:10567000883009F0D1FB20B1686890F82E0100F065
:10568000DDFB0F480090D7E903010E4B0E4AFCF7F3
:1056900027F868680023052190F8A520883008F0D5
:1056A0002DFA002809D0BDE8F840FCF713B8BDE892
:1056B000F8400021084600F0C3BCF8BDF00000200F
:1056C00041600000A958000059630000F8B50D467C
:1056D0000446002651E000BFB4F84A02401CA4F87A
:1056E0004A02B4F8D600401CA4F8D600204609F0BF
:1056F00089FD98B1D4F8C800401CC4F8C800204601
:1057000009F0ABFBD4E93201884207D30F221D49CF
:1057100004F5B070C4F8C86008F015FD94F8E00016
:1057200020B1B4F8DC00401CA4F8DC0094F8E400DC
:1057300020B1B4F8E200401CA4F8E20094F838016B
:105740008DF80000009800909DF8000040B994F892
:10575000A7200023012104F1880008F0CFF920B12F
:10576000B4F8DA00401CA4F8DA00204600F030FA61
:10577000B4F89C00401CA4F89C006D1EADB2ABD2E6
:10578000F8BD00003DE600001144C2780C48891DB8
:1057900089B24068012A06D042B1182A05D190F892
:1057A000622232B109E0A0F85E127047A0F86612DA
:1057B000704790F8632202B90021A0F86012704788
:1057C000F00000200B49C2784968012A06D05AB17E
:1057D000182A08D1B1F8601208F054BCB1F85E1272
:1057E0004172090A81727047B1F866124173090A61
:1057F00081737047F00000207CB52A4C00231946C5
:10580000606890F8A520883008F078F9002848D022
:10581000606890F85C128DF80010009900919DF876
:105820000010002500293CD090F8A60008F0C9F926
:10583000002836D16068B0F89C000A2831D9684643
:10584000FCF730FF00282CD0616805226846AE3195
:105850000AF0FBFE10B36068D0F85812087858B10F
:1058600005226846491C0AF0F0FE002819D160683C
:10587000D0F85802007840B960680099D0F8580212
:10588000C0F801109DF8041041716068D0F858020A
:105890000178491C0170012000F00CFE606880F85E
:1058A0005C527CBDF00000200C4A5178A1B902F195
:1058B0000C010128496808D09078400703D591F879
:1058C000A700062808D001207047B1F85000898E43
:1058D000884201D8FFF764BC00207047E400002034
:1058E00038B5934C6068883009F096FA002864D186
:1058F00060680023012190F8A720883008F0FEF8A6
:1059000000285AD1606890F838118DF8001000997D
:1059100000919DF8001009B102203CE0002590F8AC
:10592000A5202B462946883008F0E8F828B16068A1
:1059300090F8D40008B112202DE0606890F8A520FE
:10594000192A27D006DC032A29D0122A1ED0132AAE
:1059500004D119E0242A2AD02F2A2FD00023042191
:10596000883008F0CBF8002827D1606890F8A6109E
:105970001E2948D029DC012936D0022941D003292B
:105980002CD004293CD1B7E00B2004E0BDE838401E
:1059900000F0A2BC0620BDE8384000F08BBD90F8B6
:1059A000291180F83011072000F084FD09E018204B
:1059B00000F080FD6068A0F8DC5038BD012000F0E8
:1059C00081FD606880F8A55038BD1F291BD02229B1
:1059D00061D0282971D02F297DD189E090F8281134
:1059E00080F8301107208AE00C2000F063FD606829
:1059F00020F8E25F417941F00101417100F83C5C1F
:105A000069E0132039E090F83B218DF80020009ADE
:105A100000929DF80020BABB90F83A218DF8002042
:105A2000009A00929DF800207AB3252931D090F891
:105A3000A51025292DD026292BD0002300F2622283
:105A400000F59D7108F095FB60681F2180F8A61095
:105A500080F83A51606808F0A7FB0421606809F0FB
:105A600081F800F067F8616801F12C00C28BA1F8A1
:105A70003021408CA1F83201152000F01BFD606838
:105A8000A0F8E25080F8A65025E0FFE71F29E1D0FA
:105A900021E00123D2E790F84411012908D190F8C0
:105AA00045118DF80010009900919DF8001029B162
:105AB00090F84411022906D00DE01FE0D0F86210E2
:105AC000D0F8460102E050F8621F406800F004FD83
:105AD000182000F0EFFC6068883009F09DF900287C
